{
  "contractName": "DyFactory",
  "abi": [
    {
      "inputs": [],
      "stateMutability": "nonpayable",
      "type": "constructor"
    },
    {
      "anonymous": false,
      "inputs": [
        {
          "indexed": true,
          "internalType": "address",
          "name": "owner",
          "type": "address"
        },
        {
          "indexed": true,
          "internalType": "address",
          "name": "approved",
          "type": "address"
        },
        {
          "indexed": true,
          "internalType": "uint256",
          "name": "tokenId",
          "type": "uint256"
        }
      ],
      "name": "Approval",
      "type": "event"
    },
    {
      "anonymous": false,
      "inputs": [
        {
          "indexed": true,
          "internalType": "address",
          "name": "owner",
          "type": "address"
        },
        {
          "indexed": true,
          "internalType": "address",
          "name": "operator",
          "type": "address"
        },
        {
          "indexed": false,
          "internalType": "bool",
          "name": "approved",
          "type": "bool"
        }
      ],
      "name": "ApprovalForAll",
      "type": "event"
    },
    {
      "anonymous": false,
      "inputs": [
        {
          "indexed": true,
          "internalType": "address",
          "name": "previousOwner",
          "type": "address"
        },
        {
          "indexed": true,
          "internalType": "address",
          "name": "newOwner",
          "type": "address"
        }
      ],
      "name": "OwnershipTransferred",
      "type": "event"
    },
    {
      "anonymous": false,
      "inputs": [
        {
          "indexed": true,
          "internalType": "address",
          "name": "from",
          "type": "address"
        },
        {
          "indexed": true,
          "internalType": "address",
          "name": "to",
          "type": "address"
        },
        {
          "indexed": true,
          "internalType": "uint256",
          "name": "tokenId",
          "type": "uint256"
        }
      ],
      "name": "Transfer",
      "type": "event"
    },
    {
      "stateMutability": "payable",
      "type": "fallback",
      "payable": true
    },
    {
      "inputs": [
        {
          "internalType": "address",
          "name": "account",
          "type": "address"
        },
        {
          "internalType": "string",
          "name": "metadataUri",
          "type": "string"
        }
      ],
      "name": "_safeDynamicMint",
      "outputs": [
        {
          "internalType": "uint256",
          "name": "newId",
          "type": "uint256"
        }
      ],
      "stateMutability": "nonpayable",
      "type": "function"
    },
    {
      "inputs": [
        {
          "internalType": "uint256",
          "name": "tokenId",
          "type": "uint256"
        },
        {
          "internalType": "string",
          "name": "metadataUri",
          "type": "string"
        }
      ],
      "name": "addUpgrade",
      "outputs": [],
      "stateMutability": "nonpayable",
      "type": "function"
    },
    {
      "inputs": [
        {
          "internalType": "address",
          "name": "to",
          "type": "address"
        },
        {
          "internalType": "uint256",
          "name": "tokenId",
          "type": "uint256"
        }
      ],
      "name": "approve",
      "outputs": [],
      "stateMutability": "nonpayable",
      "type": "function"
    },
    {
      "inputs": [
        {
          "internalType": "address",
          "name": "owner",
          "type": "address"
        }
      ],
      "name": "balanceOf",
      "outputs": [
        {
          "internalType": "uint256",
          "name": "",
          "type": "uint256"
        }
      ],
      "stateMutability": "view",
      "type": "function",
      "constant": true
    },
    {
      "inputs": [
        {
          "internalType": "bytes",
          "name": "key",
          "type": "bytes"
        },
        {
          "internalType": "bytes",
          "name": "value",
          "type": "bytes"
        }
      ],
      "name": "changeProperty",
      "outputs": [],
      "stateMutability": "nonpayable",
      "type": "function"
    },
    {
      "inputs": [
        {
          "internalType": "uint256",
          "name": "tokenId",
          "type": "uint256"
        }
      ],
      "name": "getApproved",
      "outputs": [
        {
          "internalType": "address",
          "name": "",
          "type": "address"
        }
      ],
      "stateMutability": "view",
      "type": "function",
      "constant": true
    },
    {
      "inputs": [],
      "name": "getProperties",
      "outputs": [],
      "stateMutability": "nonpayable",
      "type": "function"
    },
    {
      "inputs": [
        {
          "internalType": "uint256",
          "name": "tokenId",
          "type": "uint256"
        }
      ],
      "name": "getUpgrades",
      "outputs": [
        {
          "internalType": "string[]",
          "name": "uris",
          "type": "string[]"
        }
      ],
      "stateMutability": "view",
      "type": "function",
      "constant": true
    },
    {
      "inputs": [
        {
          "internalType": "address",
          "name": "owner",
          "type": "address"
        },
        {
          "internalType": "address",
          "name": "operator",
          "type": "address"
        }
      ],
      "name": "isApprovedForAll",
      "outputs": [
        {
          "internalType": "bool",
          "name": "",
          "type": "bool"
        }
      ],
      "stateMutability": "view",
      "type": "function",
      "constant": true
    },
    {
      "inputs": [
        {
          "internalType": "string",
          "name": "metadataUri",
          "type": "string"
        }
      ],
      "name": "mint",
      "outputs": [],
      "stateMutability": "nonpayable",
      "type": "function"
    },
    {
      "inputs": [
        {
          "internalType": "string",
          "name": "metadataUri",
          "type": "string"
        },
        {
          "internalType": "address",
          "name": "to",
          "type": "address"
        }
      ],
      "name": "mintTo",
      "outputs": [],
      "stateMutability": "nonpayable",
      "type": "function"
    },
    {
      "inputs": [
        {
          "internalType": "uint256",
          "name": "",
          "type": "uint256"
        }
      ],
      "name": "minters",
      "outputs": [
        {
          "internalType": "address",
          "name": "",
          "type": "address"
        }
      ],
      "stateMutability": "view",
      "type": "function",
      "constant": true
    },
    {
      "inputs": [],
      "name": "name",
      "outputs": [
        {
          "internalType": "string",
          "name": "",
          "type": "string"
        }
      ],
      "stateMutability": "view",
      "type": "function",
      "constant": true
    },
    {
      "inputs": [],
      "name": "owner",
      "outputs": [
        {
          "internalType": "address",
          "name": "",
          "type": "address"
        }
      ],
      "stateMutability": "view",
      "type": "function",
      "constant": true
    },
    {
      "inputs": [
        {
          "internalType": "uint256",
          "name": "tokenId",
          "type": "uint256"
        }
      ],
      "name": "ownerOf",
      "outputs": [
        {
          "internalType": "address",
          "name": "",
          "type": "address"
        }
      ],
      "stateMutability": "view",
      "type": "function",
      "constant": true
    },
    {
      "inputs": [],
      "name": "readProperty",
      "outputs": [],
      "stateMutability": "nonpayable",
      "type": "function"
    },
    {
      "inputs": [],
      "name": "renounceOwnership",
      "outputs": [],
      "stateMutability": "nonpayable",
      "type": "function"
    },
    {
      "inputs": [
        {
          "internalType": "address",
          "name": "from",
          "type": "address"
        },
        {
          "internalType": "address",
          "name": "to",
          "type": "address"
        },
        {
          "internalType": "uint256",
          "name": "tokenId",
          "type": "uint256"
        }
      ],
      "name": "safeTransferFrom",
      "outputs": [],
      "stateMutability": "nonpayable",
      "type": "function"
    },
    {
      "inputs": [
        {
          "internalType": "address",
          "name": "from",
          "type": "address"
        },
        {
          "internalType": "address",
          "name": "to",
          "type": "address"
        },
        {
          "internalType": "uint256",
          "name": "tokenId",
          "type": "uint256"
        },
        {
          "internalType": "bytes",
          "name": "_data",
          "type": "bytes"
        }
      ],
      "name": "safeTransferFrom",
      "outputs": [],
      "stateMutability": "nonpayable",
      "type": "function"
    },
    {
      "inputs": [
        {
          "internalType": "address",
          "name": "operator",
          "type": "address"
        },
        {
          "internalType": "bool",
          "name": "approved",
          "type": "bool"
        }
      ],
      "name": "setApprovalForAll",
      "outputs": [],
      "stateMutability": "nonpayable",
      "type": "function"
    },
    {
      "inputs": [
        {
          "internalType": "string",
          "name": "baseURI_",
          "type": "string"
        }
      ],
      "name": "setBaseURI",
      "outputs": [],
      "stateMutability": "nonpayable",
      "type": "function"
    },
    {
      "inputs": [],
      "name": "shouldAutoAccept",
      "outputs": [
        {
          "internalType": "bool",
          "name": "",
          "type": "bool"
        }
      ],
      "stateMutability": "nonpayable",
      "type": "function"
    },
    {
      "inputs": [
        {
          "internalType": "bytes4",
          "name": "interfaceId",
          "type": "bytes4"
        }
      ],
      "name": "supportsInterface",
      "outputs": [
        {
          "internalType": "bool",
          "name": "",
          "type": "bool"
        }
      ],
      "stateMutability": "view",
      "type": "function",
      "constant": true
    },
    {
      "inputs": [],
      "name": "symbol",
      "outputs": [
        {
          "internalType": "string",
          "name": "",
          "type": "string"
        }
      ],
      "stateMutability": "view",
      "type": "function",
      "constant": true
    },
    {
      "inputs": [
        {
          "internalType": "bool",
          "name": "newVal",
          "type": "bool"
        }
      ],
      "name": "toggleAutoAccept",
      "outputs": [],
      "stateMutability": "nonpayable",
      "type": "function"
    },
    {
      "inputs": [],
      "name": "tokenCounter",
      "outputs": [
        {
          "internalType": "uint256",
          "name": "",
          "type": "uint256"
        }
      ],
      "stateMutability": "view",
      "type": "function",
      "constant": true
    },
    {
      "inputs": [
        {
          "internalType": "uint256",
          "name": "tokenId",
          "type": "uint256"
        }
      ],
      "name": "tokenURI",
      "outputs": [
        {
          "internalType": "string",
          "name": "",
          "type": "string"
        }
      ],
      "stateMutability": "view",
      "type": "function",
      "constant": true
    },
    {
      "inputs": [
        {
          "internalType": "uint256",
          "name": "",
          "type": "uint256"
        }
      ],
      "name": "tokenURIs",
      "outputs": [
        {
          "internalType": "string",
          "name": "",
          "type": "string"
        }
      ],
      "stateMutability": "view",
      "type": "function",
      "constant": true
    },
    {
      "inputs": [
        {
          "internalType": "address",
          "name": "from",
          "type": "address"
        },
        {
          "internalType": "address",
          "name": "to",
          "type": "address"
        },
        {
          "internalType": "uint256",
          "name": "tokenId",
          "type": "uint256"
        }
      ],
      "name": "transferFrom",
      "outputs": [],
      "stateMutability": "nonpayable",
      "type": "function"
    },
    {
      "inputs": [
        {
          "internalType": "address",
          "name": "newOwner",
          "type": "address"
        }
      ],
      "name": "transferOwnership",
      "outputs": [],
      "stateMutability": "nonpayable",
      "type": "function"
    },
    {
      "inputs": [
        {
          "internalType": "uint256",
          "name": "id",
          "type": "uint256"
        },
        {
          "internalType": "uint256",
          "name": "updateIndex",
          "type": "uint256"
        }
      ],
      "name": "upgrade",
      "outputs": [],
      "stateMutability": "nonpayable",
      "type": "function"
    },
    {
      "inputs": [
        {
          "internalType": "uint256",
          "name": "",
          "type": "uint256"
        },
        {
          "internalType": "uint256",
          "name": "",
          "type": "uint256"
        }
      ],
      "name": "upgrades",
      "outputs": [
        {
          "internalType": "string",
          "name": "metadata",
          "type": "string"
        },
        {
          "internalType": "bool",
          "name": "available",
          "type": "bool"
        },
        {
          "internalType": "bool",
          "name": "isSet",
          "type": "bool"
        }
      ],
      "stateMutability": "view",
      "type": "function",
      "constant": true
    },
    {
      "stateMutability": "payable",
      "type": "receive",
      "payable": true
    },
    {
      "inputs": [
        {
          "internalType": "address",
          "name": "sender",
          "type": "address"
        }
      ],
      "name": "canMint",
      "outputs": [
        {
          "internalType": "bool",
          "name": "",
          "type": "bool"
        }
      ],
      "stateMutability": "nonpayable",
      "type": "function"
    }
  ],
  "bytecode": "0x6080604052600e805460ff191690553480156200001b57600080fd5b506040805180820182526009808252684479466163746f727960b81b6020808401828152855180870190965292855284015281519192916200006091600091620000f4565b50805162000076906001906020840190620000f4565b505050620000936200008d6200009e60201b60201c565b620000a2565b6000600855620001d7565b3390565b600780546001600160a01b038381166001600160a01b0319831681179093556040519116919082907f8be0079c531659141344cd1fd0a4f28419497f9722a3daafe3b4186f6b6457e090600090a35050565b82805462000102906200019a565b90600052602060002090601f01602090048101928262000126576000855562000171565b82601f106200014157805160ff191683800117855562000171565b8280016001018555821562000171579182015b828111156200017157825182559160200191906001019062000154565b506200017f92915062000183565b5090565b5b808211156200017f576000815560010162000184565b600181811c90821680620001af57607f821691505b60208210811415620001d157634e487b7160e01b600052602260045260246000fd5b50919050565b61228380620001e76000396000f3fe6080604052600436106101da5760003560e01c806370a0823111610101578063c78a048e1161009a578063d85d3d271161006c578063d85d3d27146105a7578063e985e9c5146105c7578063ec0cfd0b14610218578063f2fde38b14610610578063fe42a2d91461063057005b8063c78a048e14610522578063c87b56dd14610542578063c935949114610562578063d082e3811461059157005b806395d89b41116100d357806395d89b41146104ac578063a22cb465146104c1578063b88d4fde146104e1578063c2ba47441461050157005b806370a0823114610415578063715018a6146104435780638623ec7b146104585780638da5cb5b1461048e57005b8063311a20f81161017357806355f804b31161014557806355f804b3146103875780636352211e146103a75780636c8b703f146103c75780637012f04e146103e757005b8063311a20f8146102f95780633c8880061461031a57806342842e0e14610347578063451450ec1461036757005b8063092e94aa116101ac578063092e94aa14610281578063095ea7b3146102a157806313a7b7fa146102c157806323b872dd146102d957005b806301ffc9a7146101e3578063061a992b1461021857806306fdde0314610227578063081812fc1461024957005b366101e157005b005b3480156101ef57600080fd5b506102036101fe366004611b59565b610650565b60405190151581526020015b60405180910390f35b34801561022457600080fd5b50005b34801561023357600080fd5b5061023c6106a4565b60405161020f9190611bca565b34801561025557600080fd5b50610269610264366004611bdd565b610736565b6040516001600160a01b03909116815260200161020f565b34801561028d57600080fd5b506101e161029c366004611ca2565b6107d0565b3480156102ad57600080fd5b506101e16102bc366004611d05565b610867565b3480156102cd57600080fd5b50600e5460ff16610203565b3480156102e557600080fd5b506101e16102f4366004611d2f565b61097d565b34801561030557600080fd5b506101e1610314366004611db4565b50505050565b34801561032657600080fd5b5061033a610335366004611bdd565b6109ae565b60405161020f9190611e20565b34801561035357600080fd5b506101e1610362366004611d2f565b610bb7565b34801561037357600080fd5b506101e1610382366004611e82565b610bd2565b34801561039357600080fd5b506101e16103a2366004611ea4565b610c29565b3480156103b357600080fd5b506102696103c2366004611bdd565b610c40565b3480156103d357600080fd5b5061023c6103e2366004611bdd565b610cb7565b3480156103f357600080fd5b506101e1610402366004611ee9565b600e805460ff1916911515919091179055565b34801561042157600080fd5b50610435610430366004611f04565b610d51565b60405190815260200161020f565b34801561044f57600080fd5b506101e1610dd8565b34801561046457600080fd5b50610269610473366004611bdd565b600b602052600090815260409020546001600160a01b031681565b34801561049a57600080fd5b506007546001600160a01b0316610269565b3480156104b857600080fd5b5061023c610e3c565b3480156104cd57600080fd5b506101e16104dc366004611f1f565b610e4b565b3480156104ed57600080fd5b506101e16104fc366004611f52565b610f10565b34801561050d57600080fd5b5061020361051c366004611f04565b50600190565b34801561052e57600080fd5b5061043561053d366004611fce565b610f42565b34801561054e57600080fd5b5061023c61055d366004611bdd565b610fa0565b34801561056e57600080fd5b5061058261057d366004611e82565b6110a5565b60405161020f93929190612006565b34801561059d57600080fd5b5061043560085481565b3480156105b357600080fd5b506101e16105c2366004611ea4565b61117a565b3480156105d357600080fd5b506102036105e2366004612030565b6001600160a01b03918216600090815260056020908152604080832093909416825291909152205460ff1690565b34801561061c57600080fd5b506101e161062b366004611f04565b611184565b34801561063c57600080fd5b506101e161064b36600461205a565b61124f565b60006001600160e01b031982166380ac58cd60e01b148061068157506001600160e01b03198216635b5e139f60e01b145b8061069c57506301ffc9a760e01b6001600160e01b03198316145b92915050565b565b6060600080546106b39061209f565b80601f01602080910402602001604051908101604052809291908181526020018280546106df9061209f565b801561072c5780601f106107015761010080835404028352916020019161072c565b820191906000526020600020905b81548152906001019060200180831161070f57829003601f168201915b5050505050905090565b6000818152600260205260408120546001600160a01b03166107b45760405162461bcd60e51b815260206004820152602c60248201527f4552433732313a20617070726f76656420717565727920666f72206e6f6e657860448201526b34b9ba32b73a103a37b5b2b760a11b60648201526084015b60405180910390fd5b506000908152600460205260409020546001600160a01b031690565b6000828152600b6020526040902054339083906001600160a01b031682148061081b5750816001600160a01b03166108106007546001600160a01b031690565b6001600160a01b0316145b61085d5760405162461bcd60e51b815260206004820152601360248201527227b7363c9036b4b73a32b910131037bbb732b960691b60448201526064016107ab565b6103148484611259565b600061087282610c40565b9050806001600160a01b0316836001600160a01b031614156108e05760405162461bcd60e51b815260206004820152602160248201527f4552433732313a20617070726f76616c20746f2063757272656e74206f776e656044820152603960f91b60648201526084016107ab565b336001600160a01b03821614806108fc57506108fc81336105e2565b61096e5760405162461bcd60e51b815260206004820152603860248201527f4552433732313a20617070726f76652063616c6c6572206973206e6f74206f7760448201527f6e6572206e6f7220617070726f76656420666f7220616c6c000000000000000060648201526084016107ab565b610978838361131b565b505050565b6109873382611389565b6109a35760405162461bcd60e51b81526004016107ab906120da565b610978838383611480565b6000818152600a60209081526040808320805482518185028101850190935280835260609493849084015b82821015610ac35783829060005260206000209060020201604051806060016040529081600082018054610a0c9061209f565b80601f0160208091040260200160405190810160405280929190818152602001828054610a389061209f565b8015610a855780601f10610a5a57610100808354040283529160200191610a85565b820191906000526020600020905b815481529060010190602001808311610a6857829003601f168201915b505050918352505060019182015460ff80821615156020808501919091526101009092041615156040909201919091529183529290920191016109d9565b505050509050805160001415610b06576040805160008082526020820190925290610afe565b6060815260200190600190039081610ae95790505b509392505050565b805167ffffffffffffffff811115610b2057610b20611bf6565b604051908082528060200260200182016040528015610b5357816020015b6060815260200190600190039081610b3e5790505b50915060005b8151811015610bb057818181518110610b7457610b7461212b565b602002602001015160000151838281518110610b9257610b9261212b565b60200260200101819052508080610ba890612157565b915050610b59565b5050919050565b61097883838360405180602001604052806000815250610f10565b8133610bdd82610c40565b6001600160a01b031614610c1f5760405162461bcd60e51b8152602060048201526009602482015268139bdd081bdddb995960ba1b60448201526064016107ab565b6109788383611620565b8051610c3c906009906020840190611aaa565b5050565b6000818152600260205260408120546001600160a01b03168061069c5760405162461bcd60e51b815260206004820152602960248201527f4552433732313a206f776e657220717565727920666f72206e6f6e657869737460448201526832b73a103a37b5b2b760b91b60648201526084016107ab565b600c6020526000908152604090208054610cd09061209f565b80601f0160208091040260200160405190810160405280929190818152602001828054610cfc9061209f565b8015610d495780601f10610d1e57610100808354040283529160200191610d49565b820191906000526020600020905b815481529060010190602001808311610d2c57829003601f168201915b505050505081565b60006001600160a01b038216610dbc5760405162461bcd60e51b815260206004820152602a60248201527f4552433732313a2062616c616e636520717565727920666f7220746865207a65604482015269726f206164647265737360b01b60648201526084016107ab565b506001600160a01b031660009081526003602052604090205490565b6007546001600160a01b03163314610e325760405162461bcd60e51b815260206004820181905260248201527f4f776e61626c653a2063616c6c6572206973206e6f7420746865206f776e657260448201526064016107ab565b6106a26000611779565b6060600180546106b39061209f565b6001600160a01b038216331415610ea45760405162461bcd60e51b815260206004820152601960248201527f4552433732313a20617070726f766520746f2063616c6c65720000000000000060448201526064016107ab565b3360008181526005602090815260408083206001600160a01b03871680855290835292819020805460ff191686151590811790915590519081529192917f17307eab39ab6107e8899845ad3d59bd9653f200f220920489ca2b5937696c31910160405180910390a35050565b610f1a3383611389565b610f365760405162461bcd60e51b81526004016107ab906120da565b610314848484846117cb565b600854600090610f5281846117fe565b6000818152600b6020526040902080546001600160a01b0319166001600160a01b038616179055610f83848261181d565b60088054906000610f9383612157565b9091555090949350505050565b6000818152600260205260409020546060906001600160a01b03166110075760405162461bcd60e51b815260206004820152601f60248201527f55524920717565727920666f72206e6f6e6578697374656e7420746f6b656e0060448201526064016107ab565b6000828152600c6020526040902080546110209061209f565b80601f016020809104026020016040519081016040528092919081815260200182805461104c9061209f565b80156110995780601f1061106e57610100808354040283529160200191611099565b820191906000526020600020905b81548152906001019060200180831161107c57829003601f168201915b50505050509050919050565b600a60205281600052604060002081815481106110c157600080fd5b9060005260206000209060020201600091509150508060000180546110e59061209f565b80601f01602080910402602001604051908101604052809291908181526020018280546111119061209f565b801561115e5780601f106111335761010080835404028352916020019161115e565b820191906000526020600020905b81548152906001019060200180831161114157829003601f168201915b5050506001909301549192505060ff8082169161010090041683565b610c3c3382610f42565b6007546001600160a01b031633146111de5760405162461bcd60e51b815260206004820181905260248201527f4f776e61626c653a2063616c6c6572206973206e6f7420746865206f776e657260448201526064016107ab565b6001600160a01b0381166112435760405162461bcd60e51b815260206004820152602660248201527f4f776e61626c653a206e6577206f776e657220697320746865207a65726f206160448201526564647265737360d01b60648201526084016107ab565b61124c81611779565b50565b6109788183610f42565b60408051606081018252828152600160208083018290526000838501819052868152600a82529384208054928301815584529283902082518051939485946002909402909201926112ad9284920190611aaa565b5060208201516001909101805460409093015115156101000261ff00199215159290921661ffff199093169290921717905560006112ed600e5460ff1690565b90508015610314576000848152600a602052604090205461031490859061131690600190612172565b611620565b600081815260046020526040902080546001600160a01b0319166001600160a01b038416908117909155819061135082610c40565b6001600160a01b03167f8c5be1e5ebec7d5bd14f71427d1e84f3dd0314c0f7b2291e5b200ac8c7c3b92560405160405180910390a45050565b6000818152600260205260408120546001600160a01b03166114025760405162461bcd60e51b815260206004820152602c60248201527f4552433732313a206f70657261746f7220717565727920666f72206e6f6e657860448201526b34b9ba32b73a103a37b5b2b760a11b60648201526084016107ab565b600061140d83610c40565b9050806001600160a01b0316846001600160a01b031614806114485750836001600160a01b031661143d84610736565b6001600160a01b0316145b8061147857506001600160a01b0380821660009081526005602090815260408083209388168352929052205460ff165b949350505050565b826001600160a01b031661149382610c40565b6001600160a01b0316146114fb5760405162461bcd60e51b815260206004820152602960248201527f4552433732313a207472616e73666572206f6620746f6b656e2074686174206960448201526839903737ba1037bbb760b91b60648201526084016107ab565b6001600160a01b03821661155d5760405162461bcd60e51b8152602060048201526024808201527f4552433732313a207472616e7366657220746f20746865207a65726f206164646044820152637265737360e01b60648201526084016107ab565b61156860008261131b565b6001600160a01b0383166000908152600360205260408120805460019290611591908490612172565b90915550506001600160a01b03821660009081526003602052604081208054600192906115bf908490612189565b909155505060008181526002602052604080822080546001600160a01b0319166001600160a01b0386811691821790925591518493918716917fddf252ad1be2c89b69c2b068fc378daa952ba7f163c4a11628f55a4df523b3ef91a4505050565b6000828152600a6020526040902054811061167d5760405162461bcd60e51b815260206004820152601960248201527f496e76616c6964206964206f7220757064617465496e6465780000000000000060448201526064016107ab565b6000828152600a6020526040812080548390811061169d5761169d61212b565b90600052602060002090600202016040518060600160405290816000820180546116c69061209f565b80601f01602080910402602001604051908101604052809291908181526020018280546116f29061209f565b801561173f5780601f106117145761010080835404028352916020019161173f565b820191906000526020600020905b81548152906001019060200180831161172257829003601f168201915b50505091835250506001919091015460ff8082161515602084015261010090910416151560409091015280519091506109789084906117fe565b600780546001600160a01b038381166001600160a01b0319831681179093556040519116919082907f8be0079c531659141344cd1fd0a4f28419497f9722a3daafe3b4186f6b6457e090600090a35050565b6117d6848484611480565b6117e284848484611837565b6103145760405162461bcd60e51b81526004016107ab906121a1565b6000828152600c60209081526040909120825161097892840190611aaa565b610c3c828260405180602001604052806000815250611935565b60006001600160a01b0384163b1561192a57604051630a85bd0160e11b81526001600160a01b0385169063150b7a029061187b9033908990889088906004016121f3565b6020604051808303816000875af19250505080156118b6575060408051601f3d908101601f191682019092526118b391810190612230565b60015b611910573d8080156118e4576040519150601f19603f3d011682016040523d82523d6000602084013e6118e9565b606091505b5080516119085760405162461bcd60e51b81526004016107ab906121a1565b805181602001fd5b6001600160e01b031916630a85bd0160e11b149050611478565b506001949350505050565b61193f8383611968565b61194c6000848484611837565b6109785760405162461bcd60e51b81526004016107ab906121a1565b6001600160a01b0382166119be5760405162461bcd60e51b815260206004820181905260248201527f4552433732313a206d696e7420746f20746865207a65726f206164647265737360448201526064016107ab565b6000818152600260205260409020546001600160a01b031615611a235760405162461bcd60e51b815260206004820152601c60248201527f4552433732313a20746f6b656e20616c7265616479206d696e7465640000000060448201526064016107ab565b6001600160a01b0382166000908152600360205260408120805460019290611a4c908490612189565b909155505060008181526002602052604080822080546001600160a01b0319166001600160a01b03861690811790915590518392907fddf252ad1be2c89b69c2b068fc378daa952ba7f163c4a11628f55a4df523b3ef908290a45050565b828054611ab69061209f565b90600052602060002090601f016020900481019282611ad85760008555611b1e565b82601f10611af157805160ff1916838001178555611b1e565b82800160010185558215611b1e579182015b82811115611b1e578251825591602001919060010190611b03565b50611b2a929150611b2e565b5090565b5b80821115611b2a5760008155600101611b2f565b6001600160e01b03198116811461124c57600080fd5b600060208284031215611b6b57600080fd5b8135611b7681611b43565b9392505050565b6000815180845260005b81811015611ba357602081850181015186830182015201611b87565b81811115611bb5576000602083870101525b50601f01601f19169290920160200192915050565b602081526000611b766020830184611b7d565b600060208284031215611bef57600080fd5b5035919050565b634e487b7160e01b600052604160045260246000fd5b600067ffffffffffffffff80841115611c2757611c27611bf6565b604051601f8501601f19908116603f01168101908282118183101715611c4f57611c4f611bf6565b81604052809350858152868686011115611c6857600080fd5b858560208301376000602087830101525050509392505050565b600082601f830112611c9357600080fd5b611b7683833560208501611c0c565b60008060408385031215611cb557600080fd5b82359150602083013567ffffffffffffffff811115611cd357600080fd5b611cdf85828601611c82565b9150509250929050565b80356001600160a01b0381168114611d0057600080fd5b919050565b60008060408385031215611d1857600080fd5b611d2183611ce9565b946020939093013593505050565b600080600060608486031215611d4457600080fd5b611d4d84611ce9565b9250611d5b60208501611ce9565b9150604084013590509250925092565b60008083601f840112611d7d57600080fd5b50813567ffffffffffffffff811115611d9557600080fd5b602083019150836020828501011115611dad57600080fd5b9250929050565b60008060008060408587031215611dca57600080fd5b843567ffffffffffffffff80821115611de257600080fd5b611dee88838901611d6b565b90965094506020870135915080821115611e0757600080fd5b50611e1487828801611d6b565b95989497509550505050565b6000602080830181845280855180835260408601915060408160051b870101925083870160005b82811015611e7557603f19888603018452611e63858351611b7d565b94509285019290850190600101611e47565b5092979650505050505050565b60008060408385031215611e9557600080fd5b50508035926020909101359150565b600060208284031215611eb657600080fd5b813567ffffffffffffffff811115611ecd57600080fd5b61147884828501611c82565b80358015158114611d0057600080fd5b600060208284031215611efb57600080fd5b611b7682611ed9565b600060208284031215611f1657600080fd5b611b7682611ce9565b60008060408385031215611f3257600080fd5b611f3b83611ce9565b9150611f4960208401611ed9565b90509250929050565b60008060008060808587031215611f6857600080fd5b611f7185611ce9565b9350611f7f60208601611ce9565b925060408501359150606085013567ffffffffffffffff811115611fa257600080fd5b8501601f81018713611fb357600080fd5b611fc287823560208401611c0c565b91505092959194509250565b60008060408385031215611fe157600080fd5b611fea83611ce9565b9150602083013567ffffffffffffffff811115611cd357600080fd5b6060815260006120196060830186611b7d565b931515602083015250901515604090910152919050565b6000806040838503121561204357600080fd5b61204c83611ce9565b9150611f4960208401611ce9565b6000806040838503121561206d57600080fd5b823567ffffffffffffffff81111561208457600080fd5b61209085828601611c82565b925050611f4960208401611ce9565b600181811c908216806120b357607f821691505b602082108114156120d457634e487b7160e01b600052602260045260246000fd5b50919050565b60208082526031908201527f4552433732313a207472616e736665722063616c6c6572206973206e6f74206f6040820152701ddb995c881b9bdc88185c1c1c9bdd9959607a1b606082015260800190565b634e487b7160e01b600052603260045260246000fd5b634e487b7160e01b600052601160045260246000fd5b600060001982141561216b5761216b612141565b5060010190565b60008282101561218457612184612141565b500390565b6000821982111561219c5761219c612141565b500190565b60208082526032908201527f4552433732313a207472616e7366657220746f206e6f6e20455243373231526560408201527131b2b4bb32b91034b6b83632b6b2b73a32b960711b606082015260800190565b6001600160a01b038581168252841660208201526040810183905260806060820181905260009061222690830184611b7d565b9695505050505050565b60006020828403121561224257600080fd5b8151611b7681611b4356fea2646970667358221220b30955185ba4a8f7f1de8ba063839069fd2d7efc0cb489fbb44541ef95fc0f1f64736f6c634300080a0033",
  "immutableReferences": {},
  "source": "pragma solidity 0.8.10;\r\n\r\nimport \"./lib/DynamicNFTFactory.sol\";\r\n\r\ncontract DyFactory is DynamicNFTFactory {\r\n    constructor () ERC721(\"DyFactory\", \"DyFactory\") {\r\n\r\n    }\r\n\r\n    function canMint(address sender) public override returns (bool){\r\n        return true;\r\n    }\r\n\r\n}\r\n",
  "sourcePath": "C:\\Projects\\Crypto\\Projects\\dynamic-nfts\\contracts\\DyFactory.sol",
  "compiler": {
    "name": "solc",
    "version": "0.8.10+commit.fc410830.Emscripten.clang"
  },
  "schemaVersion": "3.4.3",
  "updatedAt": "2021-11-29T13:24:26.048Z",
  "networkType": "ethereum",
  "devdoc": {
    "kind": "dev",
    "methods": {
      "approve(address,uint256)": {
        "details": "See {IERC721-approve}."
      },
      "balanceOf(address)": {
        "details": "See {IERC721-balanceOf}."
      },
      "getApproved(uint256)": {
        "details": "See {IERC721-getApproved}."
      },
      "isApprovedForAll(address,address)": {
        "details": "See {IERC721-isApprovedForAll}."
      },
      "name()": {
        "details": "See {IERC721Metadata-name}."
      },
      "owner()": {
        "details": "Returns the address of the current owner."
      },
      "ownerOf(uint256)": {
        "details": "See {IERC721-ownerOf}."
      },
      "renounceOwnership()": {
        "details": "Leaves the contract without owner. It will not be possible to call `onlyOwner` functions anymore. Can only be called by the current owner. NOTE: Renouncing ownership will leave the contract without an owner, thereby removing any functionality that is only available to the owner."
      },
      "safeTransferFrom(address,address,uint256)": {
        "details": "See {IERC721-safeTransferFrom}."
      },
      "safeTransferFrom(address,address,uint256,bytes)": {
        "details": "See {IERC721-safeTransferFrom}."
      },
      "setApprovalForAll(address,bool)": {
        "details": "See {IERC721-setApprovalForAll}."
      },
      "supportsInterface(bytes4)": {
        "details": "See {IERC165-supportsInterface}."
      },
      "symbol()": {
        "details": "See {IERC721Metadata-symbol}."
      },
      "tokenURI(uint256)": {
        "details": "See {IERC721Metadata-tokenURI}."
      },
      "transferFrom(address,address,uint256)": {
        "details": "See {IERC721-transferFrom}."
      },
      "transferOwnership(address)": {
        "details": "Transfers ownership of the contract to a new account (`newOwner`). Can only be called by the current owner."
      }
    },
    "version": 1
  },
  "userdoc": {
    "kind": "user",
    "methods": {
      "addUpgrade(uint256,string)": {
        "notice": "base function called only for metadata"
      },
      "getProperties()": {
        "notice": "where does the converstion between bytes & actual type happen ?"
      },
      "shouldAutoAccept()": {
        "notice": "Can be overridden to always return true/false"
      },
      "toggleAutoAccept(bool)": {
        "notice": "Can be overridden to be disabled"
      },
      "tokenURIs(uint256)": {
        "notice": "[id] -> tokenURI"
      },
      "upgrade(uint256,uint256)": {
        "notice": "hmm maybe add \"functions to execute\" inside the upgrade object / struct ?"
      },
      "upgrades(uint256,uint256)": {
        "notice": "[NFT] -> info"
      }
    },
    "version": 1
  }
}