{
  "contractName": "GameCharNFT",
  "abi": [
    {
      "inputs": [],
      "stateMutability": "nonpayable",
      "type": "constructor"
    },
    {
      "anonymous": false,
      "inputs": [
        {
          "indexed": true,
          "internalType": "address",
          "name": "owner",
          "type": "address"
        },
        {
          "indexed": true,
          "internalType": "address",
          "name": "approved",
          "type": "address"
        },
        {
          "indexed": true,
          "internalType": "uint256",
          "name": "tokenId",
          "type": "uint256"
        }
      ],
      "name": "Approval",
      "type": "event"
    },
    {
      "anonymous": false,
      "inputs": [
        {
          "indexed": true,
          "internalType": "address",
          "name": "owner",
          "type": "address"
        },
        {
          "indexed": true,
          "internalType": "address",
          "name": "operator",
          "type": "address"
        },
        {
          "indexed": false,
          "internalType": "bool",
          "name": "approved",
          "type": "bool"
        }
      ],
      "name": "ApprovalForAll",
      "type": "event"
    },
    {
      "anonymous": false,
      "inputs": [
        {
          "indexed": true,
          "internalType": "address",
          "name": "previousOwner",
          "type": "address"
        },
        {
          "indexed": true,
          "internalType": "address",
          "name": "newOwner",
          "type": "address"
        }
      ],
      "name": "OwnershipTransferred",
      "type": "event"
    },
    {
      "anonymous": false,
      "inputs": [
        {
          "indexed": true,
          "internalType": "address",
          "name": "from",
          "type": "address"
        },
        {
          "indexed": true,
          "internalType": "address",
          "name": "to",
          "type": "address"
        },
        {
          "indexed": true,
          "internalType": "uint256",
          "name": "tokenId",
          "type": "uint256"
        }
      ],
      "name": "Transfer",
      "type": "event"
    },
    {
      "stateMutability": "payable",
      "type": "fallback"
    },
    {
      "inputs": [
        {
          "internalType": "address",
          "name": "account",
          "type": "address"
        },
        {
          "internalType": "string",
          "name": "metadataUri",
          "type": "string"
        }
      ],
      "name": "_safeDynamicMint",
      "outputs": [
        {
          "internalType": "uint256",
          "name": "newId",
          "type": "uint256"
        }
      ],
      "stateMutability": "nonpayable",
      "type": "function"
    },
    {
      "inputs": [
        {
          "internalType": "uint256",
          "name": "tokenId",
          "type": "uint256"
        },
        {
          "internalType": "string",
          "name": "metadataUri",
          "type": "string"
        }
      ],
      "name": "addUpgrade",
      "outputs": [],
      "stateMutability": "nonpayable",
      "type": "function"
    },
    {
      "inputs": [
        {
          "internalType": "address",
          "name": "to",
          "type": "address"
        },
        {
          "internalType": "uint256",
          "name": "tokenId",
          "type": "uint256"
        }
      ],
      "name": "approve",
      "outputs": [],
      "stateMutability": "nonpayable",
      "type": "function"
    },
    {
      "inputs": [
        {
          "internalType": "address",
          "name": "owner",
          "type": "address"
        }
      ],
      "name": "balanceOf",
      "outputs": [
        {
          "internalType": "uint256",
          "name": "",
          "type": "uint256"
        }
      ],
      "stateMutability": "view",
      "type": "function"
    },
    {
      "inputs": [
        {
          "internalType": "bytes",
          "name": "key",
          "type": "bytes"
        },
        {
          "internalType": "bytes",
          "name": "value",
          "type": "bytes"
        }
      ],
      "name": "changeProperty",
      "outputs": [],
      "stateMutability": "nonpayable",
      "type": "function"
    },
    {
      "inputs": [
        {
          "internalType": "uint256",
          "name": "tokenId",
          "type": "uint256"
        }
      ],
      "name": "getApproved",
      "outputs": [
        {
          "internalType": "address",
          "name": "",
          "type": "address"
        }
      ],
      "stateMutability": "view",
      "type": "function"
    },
    {
      "inputs": [],
      "name": "getProperties",
      "outputs": [],
      "stateMutability": "nonpayable",
      "type": "function"
    },
    {
      "inputs": [
        {
          "internalType": "uint256",
          "name": "tokenId",
          "type": "uint256"
        }
      ],
      "name": "getUpgrades",
      "outputs": [
        {
          "internalType": "string[]",
          "name": "uris",
          "type": "string[]"
        }
      ],
      "stateMutability": "view",
      "type": "function"
    },
    {
      "inputs": [
        {
          "internalType": "address",
          "name": "owner",
          "type": "address"
        },
        {
          "internalType": "address",
          "name": "operator",
          "type": "address"
        }
      ],
      "name": "isApprovedForAll",
      "outputs": [
        {
          "internalType": "bool",
          "name": "",
          "type": "bool"
        }
      ],
      "stateMutability": "view",
      "type": "function"
    },
    {
      "inputs": [
        {
          "internalType": "uint256",
          "name": "",
          "type": "uint256"
        }
      ],
      "name": "minters",
      "outputs": [
        {
          "internalType": "address",
          "name": "",
          "type": "address"
        }
      ],
      "stateMutability": "view",
      "type": "function"
    },
    {
      "inputs": [],
      "name": "name",
      "outputs": [
        {
          "internalType": "string",
          "name": "",
          "type": "string"
        }
      ],
      "stateMutability": "view",
      "type": "function"
    },
    {
      "inputs": [],
      "name": "owner",
      "outputs": [
        {
          "internalType": "address",
          "name": "",
          "type": "address"
        }
      ],
      "stateMutability": "view",
      "type": "function"
    },
    {
      "inputs": [
        {
          "internalType": "uint256",
          "name": "tokenId",
          "type": "uint256"
        }
      ],
      "name": "ownerOf",
      "outputs": [
        {
          "internalType": "address",
          "name": "",
          "type": "address"
        }
      ],
      "stateMutability": "view",
      "type": "function"
    },
    {
      "inputs": [],
      "name": "readProperty",
      "outputs": [],
      "stateMutability": "nonpayable",
      "type": "function"
    },
    {
      "inputs": [],
      "name": "renounceOwnership",
      "outputs": [],
      "stateMutability": "nonpayable",
      "type": "function"
    },
    {
      "inputs": [
        {
          "internalType": "address",
          "name": "from",
          "type": "address"
        },
        {
          "internalType": "address",
          "name": "to",
          "type": "address"
        },
        {
          "internalType": "uint256",
          "name": "tokenId",
          "type": "uint256"
        }
      ],
      "name": "safeTransferFrom",
      "outputs": [],
      "stateMutability": "nonpayable",
      "type": "function"
    },
    {
      "inputs": [
        {
          "internalType": "address",
          "name": "from",
          "type": "address"
        },
        {
          "internalType": "address",
          "name": "to",
          "type": "address"
        },
        {
          "internalType": "uint256",
          "name": "tokenId",
          "type": "uint256"
        },
        {
          "internalType": "bytes",
          "name": "_data",
          "type": "bytes"
        }
      ],
      "name": "safeTransferFrom",
      "outputs": [],
      "stateMutability": "nonpayable",
      "type": "function"
    },
    {
      "inputs": [
        {
          "internalType": "address",
          "name": "operator",
          "type": "address"
        },
        {
          "internalType": "bool",
          "name": "approved",
          "type": "bool"
        }
      ],
      "name": "setApprovalForAll",
      "outputs": [],
      "stateMutability": "nonpayable",
      "type": "function"
    },
    {
      "inputs": [
        {
          "internalType": "string",
          "name": "baseURI_",
          "type": "string"
        }
      ],
      "name": "setBaseURI",
      "outputs": [],
      "stateMutability": "nonpayable",
      "type": "function"
    },
    {
      "inputs": [],
      "name": "shouldAutoAccept",
      "outputs": [
        {
          "internalType": "bool",
          "name": "",
          "type": "bool"
        }
      ],
      "stateMutability": "nonpayable",
      "type": "function"
    },
    {
      "inputs": [
        {
          "internalType": "bytes4",
          "name": "interfaceId",
          "type": "bytes4"
        }
      ],
      "name": "supportsInterface",
      "outputs": [
        {
          "internalType": "bool",
          "name": "",
          "type": "bool"
        }
      ],
      "stateMutability": "view",
      "type": "function"
    },
    {
      "inputs": [],
      "name": "symbol",
      "outputs": [
        {
          "internalType": "string",
          "name": "",
          "type": "string"
        }
      ],
      "stateMutability": "view",
      "type": "function"
    },
    {
      "inputs": [
        {
          "internalType": "bool",
          "name": "newVal",
          "type": "bool"
        }
      ],
      "name": "toggleAutoAccept",
      "outputs": [],
      "stateMutability": "nonpayable",
      "type": "function"
    },
    {
      "inputs": [],
      "name": "tokenCounter",
      "outputs": [
        {
          "internalType": "uint256",
          "name": "",
          "type": "uint256"
        }
      ],
      "stateMutability": "view",
      "type": "function"
    },
    {
      "inputs": [
        {
          "internalType": "uint256",
          "name": "tokenId",
          "type": "uint256"
        }
      ],
      "name": "tokenURI",
      "outputs": [
        {
          "internalType": "string",
          "name": "",
          "type": "string"
        }
      ],
      "stateMutability": "view",
      "type": "function"
    },
    {
      "inputs": [
        {
          "internalType": "uint256",
          "name": "",
          "type": "uint256"
        }
      ],
      "name": "tokenURIs",
      "outputs": [
        {
          "internalType": "string",
          "name": "",
          "type": "string"
        }
      ],
      "stateMutability": "view",
      "type": "function"
    },
    {
      "inputs": [
        {
          "internalType": "address",
          "name": "from",
          "type": "address"
        },
        {
          "internalType": "address",
          "name": "to",
          "type": "address"
        },
        {
          "internalType": "uint256",
          "name": "tokenId",
          "type": "uint256"
        }
      ],
      "name": "transferFrom",
      "outputs": [],
      "stateMutability": "nonpayable",
      "type": "function"
    },
    {
      "inputs": [
        {
          "internalType": "address",
          "name": "newOwner",
          "type": "address"
        }
      ],
      "name": "transferOwnership",
      "outputs": [],
      "stateMutability": "nonpayable",
      "type": "function"
    },
    {
      "inputs": [
        {
          "internalType": "uint256",
          "name": "id",
          "type": "uint256"
        },
        {
          "internalType": "uint256",
          "name": "updateIndex",
          "type": "uint256"
        }
      ],
      "name": "upgrade",
      "outputs": [],
      "stateMutability": "nonpayable",
      "type": "function"
    },
    {
      "inputs": [
        {
          "internalType": "uint256",
          "name": "",
          "type": "uint256"
        },
        {
          "internalType": "uint256",
          "name": "",
          "type": "uint256"
        }
      ],
      "name": "upgrades",
      "outputs": [
        {
          "internalType": "string",
          "name": "metadata",
          "type": "string"
        },
        {
          "internalType": "bool",
          "name": "available",
          "type": "bool"
        },
        {
          "internalType": "bool",
          "name": "isSet",
          "type": "bool"
        }
      ],
      "stateMutability": "view",
      "type": "function"
    },
    {
      "stateMutability": "payable",
      "type": "receive"
    }
  ],
  "bytecode": "0x6080604052600e805460ff191690553480156200001b57600080fd5b50604080518082018252600b81526a11d85b5950da185c93919560aa1b60208083019182528351808501909452600d84526c23b0b6b2a1b430b930b1ba32b960991b908401528151919291620000749160009162000108565b5080516200008a90600190602084019062000108565b505050620000a7620000a1620000b260201b60201c565b620000b6565b6000600855620001eb565b3390565b600780546001600160a01b038381166001600160a01b0319831681179093556040519116919082907f8be0079c531659141344cd1fd0a4f28419497f9722a3daafe3b4186f6b6457e090600090a35050565b8280546200011690620001ae565b90600052602060002090601f0160209004810192826200013a576000855562000185565b82601f106200015557805160ff191683800117855562000185565b8280016001018555821562000185579182015b828111156200018557825182559160200191906001019062000168565b506200019392915062000197565b5090565b5b8082111562000193576000815560010162000198565b600181811c90821680620001c357607f821691505b60208210811415620001e557634e487b7160e01b600052602260045260246000fd5b50919050565b6121a880620001fb6000396000f3fe6080604052600436106101b95760003560e01c80637012f04e116100eb578063b88d4fde1161008f578063d082e38111610061578063d082e3811461054f578063e985e9c514610565578063ec0cfd0b146101f7578063f2fde38b146105ae57005b8063b88d4fde146104c0578063c78a048e146104e0578063c87b56dd14610500578063c93594911461052057005b80638623ec7b116100c85780638623ec7b146104375780638da5cb5b1461046d57806395d89b411461048b578063a22cb465146104a057005b80637012f04e146103c657806370a08231146103f4578063715018a61461042257005b806323b872dd1161015d578063451450ec1161012f578063451450ec1461034657806355f804b3146103665780636352211e146103865780636c8b703f146103a657005b806323b872dd146102b8578063311a20f8146102d85780633c888006146102f957806342842e0e1461032657005b8063081812fc11610196578063081812fc14610228578063092e94aa14610260578063095ea7b31461028057806313a7b7fa146102a057005b806301ffc9a7146101c2578063061a992b146101f757806306fdde031461020657005b366101c057005b005b3480156101ce57600080fd5b506101e26101dd366004611ac3565b6105ce565b60405190151581526020015b60405180910390f35b34801561020357600080fd5b50005b34801561021257600080fd5b5061021b610622565b6040516101ee9190611b34565b34801561023457600080fd5b50610248610243366004611b47565b6106b4565b6040516001600160a01b0390911681526020016101ee565b34801561026c57600080fd5b506101c061027b366004611c0c565b61074e565b34801561028c57600080fd5b506101c061029b366004611c6f565b6107e5565b3480156102ac57600080fd5b50600e5460ff166101e2565b3480156102c457600080fd5b506101c06102d3366004611c99565b6108fb565b3480156102e457600080fd5b506101c06102f3366004611d1e565b50505050565b34801561030557600080fd5b50610319610314366004611b47565b61092c565b6040516101ee9190611d8a565b34801561033257600080fd5b506101c0610341366004611c99565b610b35565b34801561035257600080fd5b506101c0610361366004611dec565b610b50565b34801561037257600080fd5b506101c0610381366004611e0e565b610ba7565b34801561039257600080fd5b506102486103a1366004611b47565b610bbe565b3480156103b257600080fd5b5061021b6103c1366004611b47565b610c35565b3480156103d257600080fd5b506101c06103e1366004611e53565b600e805460ff1916911515919091179055565b34801561040057600080fd5b5061041461040f366004611e6e565b610ccf565b6040519081526020016101ee565b34801561042e57600080fd5b506101c0610d56565b34801561044357600080fd5b50610248610452366004611b47565b600b602052600090815260409020546001600160a01b031681565b34801561047957600080fd5b506007546001600160a01b0316610248565b34801561049757600080fd5b5061021b610dba565b3480156104ac57600080fd5b506101c06104bb366004611e89565b610dc9565b3480156104cc57600080fd5b506101c06104db366004611ebc565b610e8e565b3480156104ec57600080fd5b506104146104fb366004611f38565b610ec0565b34801561050c57600080fd5b5061021b61051b366004611b47565b610f1e565b34801561052c57600080fd5b5061054061053b366004611dec565b611023565b6040516101ee93929190611f70565b34801561055b57600080fd5b5061041460085481565b34801561057157600080fd5b506101e2610580366004611f9a565b6001600160a01b03918216600090815260056020908152604080832093909416825291909152205460ff1690565b3480156105ba57600080fd5b506101c06105c9366004611e6e565b6110f8565b60006001600160e01b031982166380ac58cd60e01b14806105ff57506001600160e01b03198216635b5e139f60e01b145b8061061a57506301ffc9a760e01b6001600160e01b03198316145b92915050565b565b60606000805461063190611fc4565b80601f016020809104026020016040519081016040528092919081815260200182805461065d90611fc4565b80156106aa5780601f1061067f576101008083540402835291602001916106aa565b820191906000526020600020905b81548152906001019060200180831161068d57829003601f168201915b5050505050905090565b6000818152600260205260408120546001600160a01b03166107325760405162461bcd60e51b815260206004820152602c60248201527f4552433732313a20617070726f76656420717565727920666f72206e6f6e657860448201526b34b9ba32b73a103a37b5b2b760a11b60648201526084015b60405180910390fd5b506000908152600460205260409020546001600160a01b031690565b6000828152600b6020526040902054339083906001600160a01b03168214806107995750816001600160a01b031661078e6007546001600160a01b031690565b6001600160a01b0316145b6107db5760405162461bcd60e51b815260206004820152601360248201527227b7363c9036b4b73a32b910131037bbb732b960691b6044820152606401610729565b6102f384846111c3565b60006107f082610bbe565b9050806001600160a01b0316836001600160a01b0316141561085e5760405162461bcd60e51b815260206004820152602160248201527f4552433732313a20617070726f76616c20746f2063757272656e74206f776e656044820152603960f91b6064820152608401610729565b336001600160a01b038216148061087a575061087a8133610580565b6108ec5760405162461bcd60e51b815260206004820152603860248201527f4552433732313a20617070726f76652063616c6c6572206973206e6f74206f7760448201527f6e6572206e6f7220617070726f76656420666f7220616c6c00000000000000006064820152608401610729565b6108f68383611285565b505050565b61090533826112f3565b6109215760405162461bcd60e51b815260040161072990611fff565b6108f68383836113ea565b6000818152600a60209081526040808320805482518185028101850190935280835260609493849084015b82821015610a41578382906000526020600020906002020160405180606001604052908160008201805461098a90611fc4565b80601f01602080910402602001604051908101604052809291908181526020018280546109b690611fc4565b8015610a035780601f106109d857610100808354040283529160200191610a03565b820191906000526020600020905b8154815290600101906020018083116109e657829003601f168201915b505050918352505060019182015460ff8082161515602080850191909152610100909204161515604090920191909152918352929092019101610957565b505050509050805160001415610a84576040805160008082526020820190925290610a7c565b6060815260200190600190039081610a675790505b509392505050565b805167ffffffffffffffff811115610a9e57610a9e611b60565b604051908082528060200260200182016040528015610ad157816020015b6060815260200190600190039081610abc5790505b50915060005b8151811015610b2e57818181518110610af257610af2612050565b602002602001015160000151838281518110610b1057610b10612050565b60200260200101819052508080610b269061207c565b915050610ad7565b5050919050565b6108f683838360405180602001604052806000815250610e8e565b8133610b5b82610bbe565b6001600160a01b031614610b9d5760405162461bcd60e51b8152602060048201526009602482015268139bdd081bdddb995960ba1b6044820152606401610729565b6108f6838361158a565b8051610bba906009906020840190611a14565b5050565b6000818152600260205260408120546001600160a01b03168061061a5760405162461bcd60e51b815260206004820152602960248201527f4552433732313a206f776e657220717565727920666f72206e6f6e657869737460448201526832b73a103a37b5b2b760b91b6064820152608401610729565b600c6020526000908152604090208054610c4e90611fc4565b80601f0160208091040260200160405190810160405280929190818152602001828054610c7a90611fc4565b8015610cc75780601f10610c9c57610100808354040283529160200191610cc7565b820191906000526020600020905b815481529060010190602001808311610caa57829003601f168201915b505050505081565b60006001600160a01b038216610d3a5760405162461bcd60e51b815260206004820152602a60248201527f4552433732313a2062616c616e636520717565727920666f7220746865207a65604482015269726f206164647265737360b01b6064820152608401610729565b506001600160a01b031660009081526003602052604090205490565b6007546001600160a01b03163314610db05760405162461bcd60e51b815260206004820181905260248201527f4f776e61626c653a2063616c6c6572206973206e6f7420746865206f776e65726044820152606401610729565b61062060006116e3565b60606001805461063190611fc4565b6001600160a01b038216331415610e225760405162461bcd60e51b815260206004820152601960248201527f4552433732313a20617070726f766520746f2063616c6c6572000000000000006044820152606401610729565b3360008181526005602090815260408083206001600160a01b03871680855290835292819020805460ff191686151590811790915590519081529192917f17307eab39ab6107e8899845ad3d59bd9653f200f220920489ca2b5937696c31910160405180910390a35050565b610e9833836112f3565b610eb45760405162461bcd60e51b815260040161072990611fff565b6102f384848484611735565b600854600090610ed08184611768565b6000818152600b6020526040902080546001600160a01b0319166001600160a01b038616179055610f018482611787565b60088054906000610f118361207c565b9091555090949350505050565b6000818152600260205260409020546060906001600160a01b0316610f855760405162461bcd60e51b815260206004820152601f60248201527f55524920717565727920666f72206e6f6e6578697374656e7420746f6b656e006044820152606401610729565b6000828152600c602052604090208054610f9e90611fc4565b80601f0160208091040260200160405190810160405280929190818152602001828054610fca90611fc4565b80156110175780601f10610fec57610100808354040283529160200191611017565b820191906000526020600020905b815481529060010190602001808311610ffa57829003601f168201915b50505050509050919050565b600a602052816000526040600020818154811061103f57600080fd5b90600052602060002090600202016000915091505080600001805461106390611fc4565b80601f016020809104026020016040519081016040528092919081815260200182805461108f90611fc4565b80156110dc5780601f106110b1576101008083540402835291602001916110dc565b820191906000526020600020905b8154815290600101906020018083116110bf57829003601f168201915b5050506001909301549192505060ff8082169161010090041683565b6007546001600160a01b031633146111525760405162461bcd60e51b815260206004820181905260248201527f4f776e61626c653a2063616c6c6572206973206e6f7420746865206f776e65726044820152606401610729565b6001600160a01b0381166111b75760405162461bcd60e51b815260206004820152602660248201527f4f776e61626c653a206e6577206f776e657220697320746865207a65726f206160448201526564647265737360d01b6064820152608401610729565b6111c0816116e3565b50565b60408051606081018252828152600160208083018290526000838501819052868152600a82529384208054928301815584529283902082518051939485946002909402909201926112179284920190611a14565b5060208201516001909101805460409093015115156101000261ff00199215159290921661ffff19909316929092171790556000611257600e5460ff1690565b905080156102f3576000848152600a60205260409020546102f390859061128090600190612097565b61158a565b600081815260046020526040902080546001600160a01b0319166001600160a01b03841690811790915581906112ba82610bbe565b6001600160a01b03167f8c5be1e5ebec7d5bd14f71427d1e84f3dd0314c0f7b2291e5b200ac8c7c3b92560405160405180910390a45050565b6000818152600260205260408120546001600160a01b031661136c5760405162461bcd60e51b815260206004820152602c60248201527f4552433732313a206f70657261746f7220717565727920666f72206e6f6e657860448201526b34b9ba32b73a103a37b5b2b760a11b6064820152608401610729565b600061137783610bbe565b9050806001600160a01b0316846001600160a01b031614806113b25750836001600160a01b03166113a7846106b4565b6001600160a01b0316145b806113e257506001600160a01b0380821660009081526005602090815260408083209388168352929052205460ff165b949350505050565b826001600160a01b03166113fd82610bbe565b6001600160a01b0316146114655760405162461bcd60e51b815260206004820152602960248201527f4552433732313a207472616e73666572206f6620746f6b656e2074686174206960448201526839903737ba1037bbb760b91b6064820152608401610729565b6001600160a01b0382166114c75760405162461bcd60e51b8152602060048201526024808201527f4552433732313a207472616e7366657220746f20746865207a65726f206164646044820152637265737360e01b6064820152608401610729565b6114d2600082611285565b6001600160a01b03831660009081526003602052604081208054600192906114fb908490612097565b90915550506001600160a01b03821660009081526003602052604081208054600192906115299084906120ae565b909155505060008181526002602052604080822080546001600160a01b0319166001600160a01b0386811691821790925591518493918716917fddf252ad1be2c89b69c2b068fc378daa952ba7f163c4a11628f55a4df523b3ef91a4505050565b6000828152600a602052604090205481106115e75760405162461bcd60e51b815260206004820152601960248201527f496e76616c6964206964206f7220757064617465496e646578000000000000006044820152606401610729565b6000828152600a6020526040812080548390811061160757611607612050565b906000526020600020906002020160405180606001604052908160008201805461163090611fc4565b80601f016020809104026020016040519081016040528092919081815260200182805461165c90611fc4565b80156116a95780601f1061167e576101008083540402835291602001916116a9565b820191906000526020600020905b81548152906001019060200180831161168c57829003601f168201915b50505091835250506001919091015460ff8082161515602084015261010090910416151560409091015280519091506108f6908490611768565b600780546001600160a01b038381166001600160a01b0319831681179093556040519116919082907f8be0079c531659141344cd1fd0a4f28419497f9722a3daafe3b4186f6b6457e090600090a35050565b6117408484846113ea565b61174c848484846117a1565b6102f35760405162461bcd60e51b8152600401610729906120c6565b6000828152600c6020908152604090912082516108f692840190611a14565b610bba82826040518060200160405280600081525061189f565b60006001600160a01b0384163b1561189457604051630a85bd0160e11b81526001600160a01b0385169063150b7a02906117e5903390899088908890600401612118565b6020604051808303816000875af1925050508015611820575060408051601f3d908101601f1916820190925261181d91810190612155565b60015b61187a573d80801561184e576040519150601f19603f3d011682016040523d82523d6000602084013e611853565b606091505b5080516118725760405162461bcd60e51b8152600401610729906120c6565b805181602001fd5b6001600160e01b031916630a85bd0160e11b1490506113e2565b506001949350505050565b6118a983836118d2565b6118b660008484846117a1565b6108f65760405162461bcd60e51b8152600401610729906120c6565b6001600160a01b0382166119285760405162461bcd60e51b815260206004820181905260248201527f4552433732313a206d696e7420746f20746865207a65726f20616464726573736044820152606401610729565b6000818152600260205260409020546001600160a01b03161561198d5760405162461bcd60e51b815260206004820152601c60248201527f4552433732313a20746f6b656e20616c7265616479206d696e746564000000006044820152606401610729565b6001600160a01b03821660009081526003602052604081208054600192906119b69084906120ae565b909155505060008181526002602052604080822080546001600160a01b0319166001600160a01b03861690811790915590518392907fddf252ad1be2c89b69c2b068fc378daa952ba7f163c4a11628f55a4df523b3ef908290a45050565b828054611a2090611fc4565b90600052602060002090601f016020900481019282611a425760008555611a88565b82601f10611a5b57805160ff1916838001178555611a88565b82800160010185558215611a88579182015b82811115611a88578251825591602001919060010190611a6d565b50611a94929150611a98565b5090565b5b80821115611a945760008155600101611a99565b6001600160e01b0319811681146111c057600080fd5b600060208284031215611ad557600080fd5b8135611ae081611aad565b9392505050565b6000815180845260005b81811015611b0d57602081850181015186830182015201611af1565b81811115611b1f576000602083870101525b50601f01601f19169290920160200192915050565b602081526000611ae06020830184611ae7565b600060208284031215611b5957600080fd5b5035919050565b634e487b7160e01b600052604160045260246000fd5b600067ffffffffffffffff80841115611b9157611b91611b60565b604051601f8501601f19908116603f01168101908282118183101715611bb957611bb9611b60565b81604052809350858152868686011115611bd257600080fd5b858560208301376000602087830101525050509392505050565b600082601f830112611bfd57600080fd5b611ae083833560208501611b76565b60008060408385031215611c1f57600080fd5b82359150602083013567ffffffffffffffff811115611c3d57600080fd5b611c4985828601611bec565b9150509250929050565b80356001600160a01b0381168114611c6a57600080fd5b919050565b60008060408385031215611c8257600080fd5b611c8b83611c53565b946020939093013593505050565b600080600060608486031215611cae57600080fd5b611cb784611c53565b9250611cc560208501611c53565b9150604084013590509250925092565b60008083601f840112611ce757600080fd5b50813567ffffffffffffffff811115611cff57600080fd5b602083019150836020828501011115611d1757600080fd5b9250929050565b60008060008060408587031215611d3457600080fd5b843567ffffffffffffffff80821115611d4c57600080fd5b611d5888838901611cd5565b90965094506020870135915080821115611d7157600080fd5b50611d7e87828801611cd5565b95989497509550505050565b6000602080830181845280855180835260408601915060408160051b870101925083870160005b82811015611ddf57603f19888603018452611dcd858351611ae7565b94509285019290850190600101611db1565b5092979650505050505050565b60008060408385031215611dff57600080fd5b50508035926020909101359150565b600060208284031215611e2057600080fd5b813567ffffffffffffffff811115611e3757600080fd5b6113e284828501611bec565b80358015158114611c6a57600080fd5b600060208284031215611e6557600080fd5b611ae082611e43565b600060208284031215611e8057600080fd5b611ae082611c53565b60008060408385031215611e9c57600080fd5b611ea583611c53565b9150611eb360208401611e43565b90509250929050565b60008060008060808587031215611ed257600080fd5b611edb85611c53565b9350611ee960208601611c53565b925060408501359150606085013567ffffffffffffffff811115611f0c57600080fd5b8501601f81018713611f1d57600080fd5b611f2c87823560208401611b76565b91505092959194509250565b60008060408385031215611f4b57600080fd5b611f5483611c53565b9150602083013567ffffffffffffffff811115611c3d57600080fd5b606081526000611f836060830186611ae7565b931515602083015250901515604090910152919050565b60008060408385031215611fad57600080fd5b611fb683611c53565b9150611eb360208401611c53565b600181811c90821680611fd857607f821691505b60208210811415611ff957634e487b7160e01b600052602260045260246000fd5b50919050565b60208082526031908201527f4552433732313a207472616e736665722063616c6c6572206973206e6f74206f6040820152701ddb995c881b9bdc88185c1c1c9bdd9959607a1b606082015260800190565b634e487b7160e01b600052603260045260246000fd5b634e487b7160e01b600052601160045260246000fd5b600060001982141561209057612090612066565b5060010190565b6000828210156120a9576120a9612066565b500390565b600082198211156120c1576120c1612066565b500190565b60208082526032908201527f4552433732313a207472616e7366657220746f206e6f6e20455243373231526560408201527131b2b4bb32b91034b6b83632b6b2b73a32b960711b606082015260800190565b6001600160a01b038581168252841660208201526040810183905260806060820181905260009061214b90830184611ae7565b9695505050505050565b60006020828403121561216757600080fd5b8151611ae081611aad56fea2646970667358221220d766f540d0138f64db12d144279aa5046a1106802d408bb478dd36eddc37efed64736f6c634300080a0033",
  "immutableReferences": {},
  "source": "pragma solidity 0.8.10;\r\n\r\nimport \"./lib/DynamicERC721.sol\";\r\n\r\ncontract GameCharNFT is DynamicERC721 {\r\n    constructor () ERC721(\"GameCharNFT\", \"GameCharacter\"){\r\n\r\n    }\r\n}\r\n",
  "sourcePath": "C:\\Projects\\Crypto\\Projects\\dynamic-nfts\\contracts\\GameCharacterNFTdy.sol",
  "compiler": {
    "name": "solc",
    "version": "0.8.10+commit.fc410830.Emscripten.clang"
  },
  "schemaVersion": "3.4.3",
  "updatedAt": "2021-11-29T13:24:17.671Z",
  "devdoc": {
    "kind": "dev",
    "methods": {
      "approve(address,uint256)": {
        "details": "See {IERC721-approve}."
      },
      "balanceOf(address)": {
        "details": "See {IERC721-balanceOf}."
      },
      "getApproved(uint256)": {
        "details": "See {IERC721-getApproved}."
      },
      "isApprovedForAll(address,address)": {
        "details": "See {IERC721-isApprovedForAll}."
      },
      "name()": {
        "details": "See {IERC721Metadata-name}."
      },
      "owner()": {
        "details": "Returns the address of the current owner."
      },
      "ownerOf(uint256)": {
        "details": "See {IERC721-ownerOf}."
      },
      "renounceOwnership()": {
        "details": "Leaves the contract without owner. It will not be possible to call `onlyOwner` functions anymore. Can only be called by the current owner. NOTE: Renouncing ownership will leave the contract without an owner, thereby removing any functionality that is only available to the owner."
      },
      "safeTransferFrom(address,address,uint256)": {
        "details": "See {IERC721-safeTransferFrom}."
      },
      "safeTransferFrom(address,address,uint256,bytes)": {
        "details": "See {IERC721-safeTransferFrom}."
      },
      "setApprovalForAll(address,bool)": {
        "details": "See {IERC721-setApprovalForAll}."
      },
      "supportsInterface(bytes4)": {
        "details": "See {IERC165-supportsInterface}."
      },
      "symbol()": {
        "details": "See {IERC721Metadata-symbol}."
      },
      "tokenURI(uint256)": {
        "details": "See {IERC721Metadata-tokenURI}."
      },
      "transferFrom(address,address,uint256)": {
        "details": "See {IERC721-transferFrom}."
      },
      "transferOwnership(address)": {
        "details": "Transfers ownership of the contract to a new account (`newOwner`). Can only be called by the current owner."
      }
    },
    "version": 1
  },
  "userdoc": {
    "kind": "user",
    "methods": {
      "addUpgrade(uint256,string)": {
        "notice": "base function called only for metadata"
      },
      "getProperties()": {
        "notice": "where does the converstion between bytes & actual type happen ?"
      },
      "shouldAutoAccept()": {
        "notice": "Can be overridden to always return true/false"
      },
      "toggleAutoAccept(bool)": {
        "notice": "Can be overridden to be disabled"
      },
      "tokenURIs(uint256)": {
        "notice": "[id] -> tokenURI"
      },
      "upgrade(uint256,uint256)": {
        "notice": "hmm maybe add \"functions to execute\" inside the upgrade object / struct ?"
      },
      "upgrades(uint256,uint256)": {
        "notice": "[NFT] -> info"
      }
    },
    "version": 1
  }
}