{
  "contractName": "MonaUpgradesNFT",
  "abi": [
    {
      "inputs": [],
      "stateMutability": "nonpayable",
      "type": "constructor"
    },
    {
      "anonymous": false,
      "inputs": [
        {
          "indexed": true,
          "internalType": "address",
          "name": "owner",
          "type": "address"
        },
        {
          "indexed": true,
          "internalType": "address",
          "name": "approved",
          "type": "address"
        },
        {
          "indexed": true,
          "internalType": "uint256",
          "name": "tokenId",
          "type": "uint256"
        }
      ],
      "name": "Approval",
      "type": "event"
    },
    {
      "anonymous": false,
      "inputs": [
        {
          "indexed": true,
          "internalType": "address",
          "name": "owner",
          "type": "address"
        },
        {
          "indexed": true,
          "internalType": "address",
          "name": "operator",
          "type": "address"
        },
        {
          "indexed": false,
          "internalType": "bool",
          "name": "approved",
          "type": "bool"
        }
      ],
      "name": "ApprovalForAll",
      "type": "event"
    },
    {
      "anonymous": false,
      "inputs": [
        {
          "indexed": true,
          "internalType": "address",
          "name": "previousOwner",
          "type": "address"
        },
        {
          "indexed": true,
          "internalType": "address",
          "name": "newOwner",
          "type": "address"
        }
      ],
      "name": "OwnershipTransferred",
      "type": "event"
    },
    {
      "anonymous": false,
      "inputs": [
        {
          "indexed": true,
          "internalType": "address",
          "name": "from",
          "type": "address"
        },
        {
          "indexed": true,
          "internalType": "address",
          "name": "to",
          "type": "address"
        },
        {
          "indexed": true,
          "internalType": "uint256",
          "name": "tokenId",
          "type": "uint256"
        }
      ],
      "name": "Transfer",
      "type": "event"
    },
    {
      "stateMutability": "payable",
      "type": "fallback"
    },
    {
      "inputs": [
        {
          "internalType": "address",
          "name": "account",
          "type": "address"
        },
        {
          "internalType": "string",
          "name": "metadataUri",
          "type": "string"
        }
      ],
      "name": "_safeDynamicMint",
      "outputs": [
        {
          "internalType": "uint256",
          "name": "newId",
          "type": "uint256"
        }
      ],
      "stateMutability": "nonpayable",
      "type": "function"
    },
    {
      "inputs": [
        {
          "internalType": "uint256",
          "name": "tokenId",
          "type": "uint256"
        },
        {
          "internalType": "string",
          "name": "metadataUri",
          "type": "string"
        }
      ],
      "name": "addUpgrade",
      "outputs": [],
      "stateMutability": "nonpayable",
      "type": "function"
    },
    {
      "inputs": [
        {
          "internalType": "address",
          "name": "to",
          "type": "address"
        },
        {
          "internalType": "uint256",
          "name": "tokenId",
          "type": "uint256"
        }
      ],
      "name": "approve",
      "outputs": [],
      "stateMutability": "nonpayable",
      "type": "function"
    },
    {
      "inputs": [
        {
          "internalType": "address",
          "name": "owner",
          "type": "address"
        }
      ],
      "name": "balanceOf",
      "outputs": [
        {
          "internalType": "uint256",
          "name": "",
          "type": "uint256"
        }
      ],
      "stateMutability": "view",
      "type": "function"
    },
    {
      "inputs": [
        {
          "internalType": "bytes",
          "name": "key",
          "type": "bytes"
        },
        {
          "internalType": "bytes",
          "name": "value",
          "type": "bytes"
        }
      ],
      "name": "changeProperty",
      "outputs": [],
      "stateMutability": "nonpayable",
      "type": "function"
    },
    {
      "inputs": [
        {
          "internalType": "uint256",
          "name": "tokenId",
          "type": "uint256"
        }
      ],
      "name": "getApproved",
      "outputs": [
        {
          "internalType": "address",
          "name": "",
          "type": "address"
        }
      ],
      "stateMutability": "view",
      "type": "function"
    },
    {
      "inputs": [],
      "name": "getProperties",
      "outputs": [],
      "stateMutability": "nonpayable",
      "type": "function"
    },
    {
      "inputs": [
        {
          "internalType": "uint256",
          "name": "tokenId",
          "type": "uint256"
        }
      ],
      "name": "getUpgrades",
      "outputs": [
        {
          "internalType": "string[]",
          "name": "uris",
          "type": "string[]"
        }
      ],
      "stateMutability": "view",
      "type": "function"
    },
    {
      "inputs": [
        {
          "internalType": "address",
          "name": "owner",
          "type": "address"
        },
        {
          "internalType": "address",
          "name": "operator",
          "type": "address"
        }
      ],
      "name": "isApprovedForAll",
      "outputs": [
        {
          "internalType": "bool",
          "name": "",
          "type": "bool"
        }
      ],
      "stateMutability": "view",
      "type": "function"
    },
    {
      "inputs": [
        {
          "internalType": "uint256",
          "name": "",
          "type": "uint256"
        }
      ],
      "name": "minters",
      "outputs": [
        {
          "internalType": "address",
          "name": "",
          "type": "address"
        }
      ],
      "stateMutability": "view",
      "type": "function"
    },
    {
      "inputs": [],
      "name": "name",
      "outputs": [
        {
          "internalType": "string",
          "name": "",
          "type": "string"
        }
      ],
      "stateMutability": "view",
      "type": "function"
    },
    {
      "inputs": [],
      "name": "owner",
      "outputs": [
        {
          "internalType": "address",
          "name": "",
          "type": "address"
        }
      ],
      "stateMutability": "view",
      "type": "function"
    },
    {
      "inputs": [
        {
          "internalType": "uint256",
          "name": "tokenId",
          "type": "uint256"
        }
      ],
      "name": "ownerOf",
      "outputs": [
        {
          "internalType": "address",
          "name": "",
          "type": "address"
        }
      ],
      "stateMutability": "view",
      "type": "function"
    },
    {
      "inputs": [],
      "name": "readProperty",
      "outputs": [],
      "stateMutability": "nonpayable",
      "type": "function"
    },
    {
      "inputs": [],
      "name": "renounceOwnership",
      "outputs": [],
      "stateMutability": "nonpayable",
      "type": "function"
    },
    {
      "inputs": [
        {
          "internalType": "address",
          "name": "from",
          "type": "address"
        },
        {
          "internalType": "address",
          "name": "to",
          "type": "address"
        },
        {
          "internalType": "uint256",
          "name": "tokenId",
          "type": "uint256"
        }
      ],
      "name": "safeTransferFrom",
      "outputs": [],
      "stateMutability": "nonpayable",
      "type": "function"
    },
    {
      "inputs": [
        {
          "internalType": "address",
          "name": "from",
          "type": "address"
        },
        {
          "internalType": "address",
          "name": "to",
          "type": "address"
        },
        {
          "internalType": "uint256",
          "name": "tokenId",
          "type": "uint256"
        },
        {
          "internalType": "bytes",
          "name": "_data",
          "type": "bytes"
        }
      ],
      "name": "safeTransferFrom",
      "outputs": [],
      "stateMutability": "nonpayable",
      "type": "function"
    },
    {
      "inputs": [
        {
          "internalType": "address",
          "name": "operator",
          "type": "address"
        },
        {
          "internalType": "bool",
          "name": "approved",
          "type": "bool"
        }
      ],
      "name": "setApprovalForAll",
      "outputs": [],
      "stateMutability": "nonpayable",
      "type": "function"
    },
    {
      "inputs": [
        {
          "internalType": "string",
          "name": "baseURI_",
          "type": "string"
        }
      ],
      "name": "setBaseURI",
      "outputs": [],
      "stateMutability": "nonpayable",
      "type": "function"
    },
    {
      "inputs": [],
      "name": "shouldAutoAccept",
      "outputs": [
        {
          "internalType": "bool",
          "name": "",
          "type": "bool"
        }
      ],
      "stateMutability": "nonpayable",
      "type": "function"
    },
    {
      "inputs": [
        {
          "internalType": "bytes4",
          "name": "interfaceId",
          "type": "bytes4"
        }
      ],
      "name": "supportsInterface",
      "outputs": [
        {
          "internalType": "bool",
          "name": "",
          "type": "bool"
        }
      ],
      "stateMutability": "view",
      "type": "function"
    },
    {
      "inputs": [],
      "name": "symbol",
      "outputs": [
        {
          "internalType": "string",
          "name": "",
          "type": "string"
        }
      ],
      "stateMutability": "view",
      "type": "function"
    },
    {
      "inputs": [
        {
          "internalType": "bool",
          "name": "newVal",
          "type": "bool"
        }
      ],
      "name": "toggleAutoAccept",
      "outputs": [],
      "stateMutability": "nonpayable",
      "type": "function"
    },
    {
      "inputs": [],
      "name": "tokenCounter",
      "outputs": [
        {
          "internalType": "uint256",
          "name": "",
          "type": "uint256"
        }
      ],
      "stateMutability": "view",
      "type": "function"
    },
    {
      "inputs": [
        {
          "internalType": "uint256",
          "name": "tokenId",
          "type": "uint256"
        }
      ],
      "name": "tokenURI",
      "outputs": [
        {
          "internalType": "string",
          "name": "",
          "type": "string"
        }
      ],
      "stateMutability": "view",
      "type": "function"
    },
    {
      "inputs": [
        {
          "internalType": "uint256",
          "name": "",
          "type": "uint256"
        }
      ],
      "name": "tokenURIs",
      "outputs": [
        {
          "internalType": "string",
          "name": "",
          "type": "string"
        }
      ],
      "stateMutability": "view",
      "type": "function"
    },
    {
      "inputs": [
        {
          "internalType": "address",
          "name": "from",
          "type": "address"
        },
        {
          "internalType": "address",
          "name": "to",
          "type": "address"
        },
        {
          "internalType": "uint256",
          "name": "tokenId",
          "type": "uint256"
        }
      ],
      "name": "transferFrom",
      "outputs": [],
      "stateMutability": "nonpayable",
      "type": "function"
    },
    {
      "inputs": [
        {
          "internalType": "address",
          "name": "newOwner",
          "type": "address"
        }
      ],
      "name": "transferOwnership",
      "outputs": [],
      "stateMutability": "nonpayable",
      "type": "function"
    },
    {
      "inputs": [
        {
          "internalType": "uint256",
          "name": "id",
          "type": "uint256"
        },
        {
          "internalType": "uint256",
          "name": "updateIndex",
          "type": "uint256"
        }
      ],
      "name": "upgrade",
      "outputs": [],
      "stateMutability": "nonpayable",
      "type": "function"
    },
    {
      "inputs": [
        {
          "internalType": "uint256",
          "name": "",
          "type": "uint256"
        },
        {
          "internalType": "uint256",
          "name": "",
          "type": "uint256"
        }
      ],
      "name": "upgrades",
      "outputs": [
        {
          "internalType": "string",
          "name": "metadata",
          "type": "string"
        },
        {
          "internalType": "bool",
          "name": "available",
          "type": "bool"
        },
        {
          "internalType": "bool",
          "name": "isSet",
          "type": "bool"
        }
      ],
      "stateMutability": "view",
      "type": "function"
    },
    {
      "stateMutability": "payable",
      "type": "receive"
    },
    {
      "inputs": [
        {
          "internalType": "string",
          "name": "metadataUri",
          "type": "string"
        }
      ],
      "name": "mint",
      "outputs": [],
      "stateMutability": "nonpayable",
      "type": "function"
    },
    {
      "inputs": [
        {
          "internalType": "string",
          "name": "metadataUri",
          "type": "string"
        },
        {
          "internalType": "address",
          "name": "to",
          "type": "address"
        }
      ],
      "name": "mintTo",
      "outputs": [],
      "stateMutability": "nonpayable",
      "type": "function"
    }
  ],
  "bytecode": "0x6080604052600e805460ff191690553480156200001b57600080fd5b50604080518082018252600f81526e135bdb98555c19dc9859195cd39195608a1b60208083019182528351808501909452601d84527f4d6f6e6155706772616465734e4654436f6c6c656374696f6e6779686200000090840152815191929162000088916000916200011c565b5080516200009e9060019060208401906200011c565b505050620000bb620000b5620000c660201b60201c565b620000ca565b6000600855620001ff565b3390565b600780546001600160a01b038381166001600160a01b0319831681179093556040519116919082907f8be0079c531659141344cd1fd0a4f28419497f9722a3daafe3b4186f6b6457e090600090a35050565b8280546200012a90620001c2565b90600052602060002090601f0160209004810192826200014e576000855562000199565b82601f106200016957805160ff191683800117855562000199565b8280016001018555821562000199579182015b82811115620001995782518255916020019190600101906200017c565b50620001a7929150620001ab565b5090565b5b80821115620001a75760008155600101620001ac565b600181811c90821680620001d757607f821691505b60208210811415620001f957634e487b7160e01b600052602260045260246000fd5b50919050565b612257806200020f6000396000f3fe6080604052600436106101cf5760003560e01c806370a08231116100f6578063c87b56dd1161008f578063e985e9c511610061578063e985e9c51461059b578063ec0cfd0b1461020d578063f2fde38b146105e4578063fe42a2d91461060457005b8063c87b56dd14610516578063c935949114610536578063d082e38114610565578063d85d3d271461057b57005b806395d89b41116100c857806395d89b41146104a1578063a22cb465146104b6578063b88d4fde146104d6578063c78a048e146104f657005b806370a082311461040a578063715018a6146104385780638623ec7b1461044d5780638da5cb5b1461048357005b8063311a20f81161016857806355f804b31161013a57806355f804b31461037c5780636352211e1461039c5780636c8b703f146103bc5780637012f04e146103dc57005b8063311a20f8146102ee5780633c8880061461030f57806342842e0e1461033c578063451450ec1461035c57005b8063092e94aa116101a1578063092e94aa14610276578063095ea7b31461029657806313a7b7fa146102b657806323b872dd146102ce57005b806301ffc9a7146101d8578063061a992b1461020d57806306fdde031461021c578063081812fc1461023e57005b366101d657005b005b3480156101e457600080fd5b506101f86101f3366004611b2d565b610624565b60405190151581526020015b60405180910390f35b34801561021957600080fd5b50005b34801561022857600080fd5b50610231610678565b6040516102049190611b9e565b34801561024a57600080fd5b5061025e610259366004611bb1565b61070a565b6040516001600160a01b039091168152602001610204565b34801561028257600080fd5b506101d6610291366004611c76565b6107a4565b3480156102a257600080fd5b506101d66102b1366004611cd9565b61083b565b3480156102c257600080fd5b50600e5460ff166101f8565b3480156102da57600080fd5b506101d66102e9366004611d03565b610951565b3480156102fa57600080fd5b506101d6610309366004611d88565b50505050565b34801561031b57600080fd5b5061032f61032a366004611bb1565b610982565b6040516102049190611df4565b34801561034857600080fd5b506101d6610357366004611d03565b610b8b565b34801561036857600080fd5b506101d6610377366004611e56565b610ba6565b34801561038857600080fd5b506101d6610397366004611e78565b610bfd565b3480156103a857600080fd5b5061025e6103b7366004611bb1565b610c14565b3480156103c857600080fd5b506102316103d7366004611bb1565b610c8b565b3480156103e857600080fd5b506101d66103f7366004611ebd565b600e805460ff1916911515919091179055565b34801561041657600080fd5b5061042a610425366004611ed8565b610d25565b604051908152602001610204565b34801561044457600080fd5b506101d6610dac565b34801561045957600080fd5b5061025e610468366004611bb1565b600b602052600090815260409020546001600160a01b031681565b34801561048f57600080fd5b506007546001600160a01b031661025e565b3480156104ad57600080fd5b50610231610e10565b3480156104c257600080fd5b506101d66104d1366004611ef3565b610e1f565b3480156104e257600080fd5b506101d66104f1366004611f26565b610ee4565b34801561050257600080fd5b5061042a610511366004611fa2565b610f16565b34801561052257600080fd5b50610231610531366004611bb1565b610f74565b34801561054257600080fd5b50610556610551366004611e56565b611079565b60405161020493929190611fda565b34801561057157600080fd5b5061042a60085481565b34801561058757600080fd5b506101d6610596366004611e78565b61114e565b3480156105a757600080fd5b506101f86105b6366004612004565b6001600160a01b03918216600090815260056020908152604080832093909416825291909152205460ff1690565b3480156105f057600080fd5b506101d66105ff366004611ed8565b611158565b34801561061057600080fd5b506101d661061f36600461202e565b611223565b60006001600160e01b031982166380ac58cd60e01b148061065557506001600160e01b03198216635b5e139f60e01b145b8061067057506301ffc9a760e01b6001600160e01b03198316145b92915050565b565b60606000805461068790612073565b80601f01602080910402602001604051908101604052809291908181526020018280546106b390612073565b80156107005780601f106106d557610100808354040283529160200191610700565b820191906000526020600020905b8154815290600101906020018083116106e357829003601f168201915b5050505050905090565b6000818152600260205260408120546001600160a01b03166107885760405162461bcd60e51b815260206004820152602c60248201527f4552433732313a20617070726f76656420717565727920666f72206e6f6e657860448201526b34b9ba32b73a103a37b5b2b760a11b60648201526084015b60405180910390fd5b506000908152600460205260409020546001600160a01b031690565b6000828152600b6020526040902054339083906001600160a01b03168214806107ef5750816001600160a01b03166107e46007546001600160a01b031690565b6001600160a01b0316145b6108315760405162461bcd60e51b815260206004820152601360248201527227b7363c9036b4b73a32b910131037bbb732b960691b604482015260640161077f565b610309848461122d565b600061084682610c14565b9050806001600160a01b0316836001600160a01b031614156108b45760405162461bcd60e51b815260206004820152602160248201527f4552433732313a20617070726f76616c20746f2063757272656e74206f776e656044820152603960f91b606482015260840161077f565b336001600160a01b03821614806108d057506108d081336105b6565b6109425760405162461bcd60e51b815260206004820152603860248201527f4552433732313a20617070726f76652063616c6c6572206973206e6f74206f7760448201527f6e6572206e6f7220617070726f76656420666f7220616c6c0000000000000000606482015260840161077f565b61094c83836112ef565b505050565b61095b338261135d565b6109775760405162461bcd60e51b815260040161077f906120ae565b61094c838383611454565b6000818152600a60209081526040808320805482518185028101850190935280835260609493849084015b82821015610a9757838290600052602060002090600202016040518060600160405290816000820180546109e090612073565b80601f0160208091040260200160405190810160405280929190818152602001828054610a0c90612073565b8015610a595780601f10610a2e57610100808354040283529160200191610a59565b820191906000526020600020905b815481529060010190602001808311610a3c57829003601f168201915b505050918352505060019182015460ff80821615156020808501919091526101009092041615156040909201919091529183529290920191016109ad565b505050509050805160001415610ada576040805160008082526020820190925290610ad2565b6060815260200190600190039081610abd5790505b509392505050565b805167ffffffffffffffff811115610af457610af4611bca565b604051908082528060200260200182016040528015610b2757816020015b6060815260200190600190039081610b125790505b50915060005b8151811015610b8457818181518110610b4857610b486120ff565b602002602001015160000151838281518110610b6657610b666120ff565b60200260200101819052508080610b7c9061212b565b915050610b2d565b5050919050565b61094c83838360405180602001604052806000815250610ee4565b8133610bb182610c14565b6001600160a01b031614610bf35760405162461bcd60e51b8152602060048201526009602482015268139bdd081bdddb995960ba1b604482015260640161077f565b61094c83836115f4565b8051610c10906009906020840190611a7e565b5050565b6000818152600260205260408120546001600160a01b0316806106705760405162461bcd60e51b815260206004820152602960248201527f4552433732313a206f776e657220717565727920666f72206e6f6e657869737460448201526832b73a103a37b5b2b760b91b606482015260840161077f565b600c6020526000908152604090208054610ca490612073565b80601f0160208091040260200160405190810160405280929190818152602001828054610cd090612073565b8015610d1d5780601f10610cf257610100808354040283529160200191610d1d565b820191906000526020600020905b815481529060010190602001808311610d0057829003601f168201915b505050505081565b60006001600160a01b038216610d905760405162461bcd60e51b815260206004820152602a60248201527f4552433732313a2062616c616e636520717565727920666f7220746865207a65604482015269726f206164647265737360b01b606482015260840161077f565b506001600160a01b031660009081526003602052604090205490565b6007546001600160a01b03163314610e065760405162461bcd60e51b815260206004820181905260248201527f4f776e61626c653a2063616c6c6572206973206e6f7420746865206f776e6572604482015260640161077f565b610676600061174d565b60606001805461068790612073565b6001600160a01b038216331415610e785760405162461bcd60e51b815260206004820152601960248201527f4552433732313a20617070726f766520746f2063616c6c657200000000000000604482015260640161077f565b3360008181526005602090815260408083206001600160a01b03871680855290835292819020805460ff191686151590811790915590519081529192917f17307eab39ab6107e8899845ad3d59bd9653f200f220920489ca2b5937696c31910160405180910390a35050565b610eee338361135d565b610f0a5760405162461bcd60e51b815260040161077f906120ae565b6103098484848461179f565b600854600090610f2681846117d2565b6000818152600b6020526040902080546001600160a01b0319166001600160a01b038616179055610f5784826117f1565b60088054906000610f678361212b565b9091555090949350505050565b6000818152600260205260409020546060906001600160a01b0316610fdb5760405162461bcd60e51b815260206004820152601f60248201527f55524920717565727920666f72206e6f6e6578697374656e7420746f6b656e00604482015260640161077f565b6000828152600c602052604090208054610ff490612073565b80601f016020809104026020016040519081016040528092919081815260200182805461102090612073565b801561106d5780601f106110425761010080835404028352916020019161106d565b820191906000526020600020905b81548152906001019060200180831161105057829003601f168201915b50505050509050919050565b600a602052816000526040600020818154811061109557600080fd5b9060005260206000209060020201600091509150508060000180546110b990612073565b80601f01602080910402602001604051908101604052809291908181526020018280546110e590612073565b80156111325780601f1061110757610100808354040283529160200191611132565b820191906000526020600020905b81548152906001019060200180831161111557829003601f168201915b5050506001909301549192505060ff8082169161010090041683565b610c103382610f16565b6007546001600160a01b031633146111b25760405162461bcd60e51b815260206004820181905260248201527f4f776e61626c653a2063616c6c6572206973206e6f7420746865206f776e6572604482015260640161077f565b6001600160a01b0381166112175760405162461bcd60e51b815260206004820152602660248201527f4f776e61626c653a206e6577206f776e657220697320746865207a65726f206160448201526564647265737360d01b606482015260840161077f565b6112208161174d565b50565b61094c8183610f16565b60408051606081018252828152600160208083018290526000838501819052868152600a82529384208054928301815584529283902082518051939485946002909402909201926112819284920190611a7e565b5060208201516001909101805460409093015115156101000261ff00199215159290921661ffff199093169290921717905560006112c1600e5460ff1690565b90508015610309576000848152600a60205260409020546103099085906112ea90600190612146565b6115f4565b600081815260046020526040902080546001600160a01b0319166001600160a01b038416908117909155819061132482610c14565b6001600160a01b03167f8c5be1e5ebec7d5bd14f71427d1e84f3dd0314c0f7b2291e5b200ac8c7c3b92560405160405180910390a45050565b6000818152600260205260408120546001600160a01b03166113d65760405162461bcd60e51b815260206004820152602c60248201527f4552433732313a206f70657261746f7220717565727920666f72206e6f6e657860448201526b34b9ba32b73a103a37b5b2b760a11b606482015260840161077f565b60006113e183610c14565b9050806001600160a01b0316846001600160a01b0316148061141c5750836001600160a01b03166114118461070a565b6001600160a01b0316145b8061144c57506001600160a01b0380821660009081526005602090815260408083209388168352929052205460ff165b949350505050565b826001600160a01b031661146782610c14565b6001600160a01b0316146114cf5760405162461bcd60e51b815260206004820152602960248201527f4552433732313a207472616e73666572206f6620746f6b656e2074686174206960448201526839903737ba1037bbb760b91b606482015260840161077f565b6001600160a01b0382166115315760405162461bcd60e51b8152602060048201526024808201527f4552433732313a207472616e7366657220746f20746865207a65726f206164646044820152637265737360e01b606482015260840161077f565b61153c6000826112ef565b6001600160a01b0383166000908152600360205260408120805460019290611565908490612146565b90915550506001600160a01b038216600090815260036020526040812080546001929061159390849061215d565b909155505060008181526002602052604080822080546001600160a01b0319166001600160a01b0386811691821790925591518493918716917fddf252ad1be2c89b69c2b068fc378daa952ba7f163c4a11628f55a4df523b3ef91a4505050565b6000828152600a602052604090205481106116515760405162461bcd60e51b815260206004820152601960248201527f496e76616c6964206964206f7220757064617465496e64657800000000000000604482015260640161077f565b6000828152600a60205260408120805483908110611671576116716120ff565b906000526020600020906002020160405180606001604052908160008201805461169a90612073565b80601f01602080910402602001604051908101604052809291908181526020018280546116c690612073565b80156117135780601f106116e857610100808354040283529160200191611713565b820191906000526020600020905b8154815290600101906020018083116116f657829003601f168201915b50505091835250506001919091015460ff80821615156020840152610100909104161515604090910152805190915061094c9084906117d2565b600780546001600160a01b038381166001600160a01b0319831681179093556040519116919082907f8be0079c531659141344cd1fd0a4f28419497f9722a3daafe3b4186f6b6457e090600090a35050565b6117aa848484611454565b6117b68484848461180b565b6103095760405162461bcd60e51b815260040161077f90612175565b6000828152600c60209081526040909120825161094c92840190611a7e565b610c10828260405180602001604052806000815250611909565b60006001600160a01b0384163b156118fe57604051630a85bd0160e11b81526001600160a01b0385169063150b7a029061184f9033908990889088906004016121c7565b6020604051808303816000875af192505050801561188a575060408051601f3d908101601f1916820190925261188791810190612204565b60015b6118e4573d8080156118b8576040519150601f19603f3d011682016040523d82523d6000602084013e6118bd565b606091505b5080516118dc5760405162461bcd60e51b815260040161077f90612175565b805181602001fd5b6001600160e01b031916630a85bd0160e11b14905061144c565b506001949350505050565b611913838361193c565b611920600084848461180b565b61094c5760405162461bcd60e51b815260040161077f90612175565b6001600160a01b0382166119925760405162461bcd60e51b815260206004820181905260248201527f4552433732313a206d696e7420746f20746865207a65726f2061646472657373604482015260640161077f565b6000818152600260205260409020546001600160a01b0316156119f75760405162461bcd60e51b815260206004820152601c60248201527f4552433732313a20746f6b656e20616c7265616479206d696e74656400000000604482015260640161077f565b6001600160a01b0382166000908152600360205260408120805460019290611a2090849061215d565b909155505060008181526002602052604080822080546001600160a01b0319166001600160a01b03861690811790915590518392907fddf252ad1be2c89b69c2b068fc378daa952ba7f163c4a11628f55a4df523b3ef908290a45050565b828054611a8a90612073565b90600052602060002090601f016020900481019282611aac5760008555611af2565b82601f10611ac557805160ff1916838001178555611af2565b82800160010185558215611af2579182015b82811115611af2578251825591602001919060010190611ad7565b50611afe929150611b02565b5090565b5b80821115611afe5760008155600101611b03565b6001600160e01b03198116811461122057600080fd5b600060208284031215611b3f57600080fd5b8135611b4a81611b17565b9392505050565b6000815180845260005b81811015611b7757602081850181015186830182015201611b5b565b81811115611b89576000602083870101525b50601f01601f19169290920160200192915050565b602081526000611b4a6020830184611b51565b600060208284031215611bc357600080fd5b5035919050565b634e487b7160e01b600052604160045260246000fd5b600067ffffffffffffffff80841115611bfb57611bfb611bca565b604051601f8501601f19908116603f01168101908282118183101715611c2357611c23611bca565b81604052809350858152868686011115611c3c57600080fd5b858560208301376000602087830101525050509392505050565b600082601f830112611c6757600080fd5b611b4a83833560208501611be0565b60008060408385031215611c8957600080fd5b82359150602083013567ffffffffffffffff811115611ca757600080fd5b611cb385828601611c56565b9150509250929050565b80356001600160a01b0381168114611cd457600080fd5b919050565b60008060408385031215611cec57600080fd5b611cf583611cbd565b946020939093013593505050565b600080600060608486031215611d1857600080fd5b611d2184611cbd565b9250611d2f60208501611cbd565b9150604084013590509250925092565b60008083601f840112611d5157600080fd5b50813567ffffffffffffffff811115611d6957600080fd5b602083019150836020828501011115611d8157600080fd5b9250929050565b60008060008060408587031215611d9e57600080fd5b843567ffffffffffffffff80821115611db657600080fd5b611dc288838901611d3f565b90965094506020870135915080821115611ddb57600080fd5b50611de887828801611d3f565b95989497509550505050565b6000602080830181845280855180835260408601915060408160051b870101925083870160005b82811015611e4957603f19888603018452611e37858351611b51565b94509285019290850190600101611e1b565b5092979650505050505050565b60008060408385031215611e6957600080fd5b50508035926020909101359150565b600060208284031215611e8a57600080fd5b813567ffffffffffffffff811115611ea157600080fd5b61144c84828501611c56565b80358015158114611cd457600080fd5b600060208284031215611ecf57600080fd5b611b4a82611ead565b600060208284031215611eea57600080fd5b611b4a82611cbd565b60008060408385031215611f0657600080fd5b611f0f83611cbd565b9150611f1d60208401611ead565b90509250929050565b60008060008060808587031215611f3c57600080fd5b611f4585611cbd565b9350611f5360208601611cbd565b925060408501359150606085013567ffffffffffffffff811115611f7657600080fd5b8501601f81018713611f8757600080fd5b611f9687823560208401611be0565b91505092959194509250565b60008060408385031215611fb557600080fd5b611fbe83611cbd565b9150602083013567ffffffffffffffff811115611ca757600080fd5b606081526000611fed6060830186611b51565b931515602083015250901515604090910152919050565b6000806040838503121561201757600080fd5b61202083611cbd565b9150611f1d60208401611cbd565b6000806040838503121561204157600080fd5b823567ffffffffffffffff81111561205857600080fd5b61206485828601611c56565b925050611f1d60208401611cbd565b600181811c9082168061208757607f821691505b602082108114156120a857634e487b7160e01b600052602260045260246000fd5b50919050565b60208082526031908201527f4552433732313a207472616e736665722063616c6c6572206973206e6f74206f6040820152701ddb995c881b9bdc88185c1c1c9bdd9959607a1b606082015260800190565b634e487b7160e01b600052603260045260246000fd5b634e487b7160e01b600052601160045260246000fd5b600060001982141561213f5761213f612115565b5060010190565b60008282101561215857612158612115565b500390565b6000821982111561217057612170612115565b500190565b60208082526032908201527f4552433732313a207472616e7366657220746f206e6f6e20455243373231526560408201527131b2b4bb32b91034b6b83632b6b2b73a32b960711b606082015260800190565b6001600160a01b03858116825284166020820152604081018390526080606082018190526000906121fa90830184611b51565b9695505050505050565b60006020828403121561221657600080fd5b8151611b4a81611b1756fea2646970667358221220fe508ccf11a55e5e890498d68dd0aa0dd73c5b3a2784f7eabd8f8226208b8da464736f6c634300080a0033",
  "immutableReferences": {},
  "source": "pragma solidity 0.8.10;\r\n\r\nimport \"./lib/DynamicERC721.sol\";\r\n\r\ncontract MonaUpgradesNFT is DynamicERC721 {\r\n    constructor () ERC721(\"MonaUpgradesNFT\", \"MonaUpgradesNFTCollectiongyhb\"){\r\n    }\r\n\r\n    function mint(string memory metadataUri) public {\r\n        super._safeDynamicMint(msg.sender, metadataUri);\r\n    }\r\n\r\n    function mintTo(string memory metadataUri, address to) public {\r\n        super._safeDynamicMint(to, metadataUri);\r\n    }\r\n}\r\n",
  "sourcePath": "C:\\Projects\\Crypto\\Projects\\dynamic-nfts\\contracts\\MonaUpgradesNFT.sol",
  "compiler": {
    "name": "solc",
    "version": "0.8.10+commit.fc410830.Emscripten.clang"
  },
  "schemaVersion": "3.4.3",
  "updatedAt": "2021-11-29T13:24:17.680Z",
  "devdoc": {
    "kind": "dev",
    "methods": {
      "approve(address,uint256)": {
        "details": "See {IERC721-approve}."
      },
      "balanceOf(address)": {
        "details": "See {IERC721-balanceOf}."
      },
      "getApproved(uint256)": {
        "details": "See {IERC721-getApproved}."
      },
      "isApprovedForAll(address,address)": {
        "details": "See {IERC721-isApprovedForAll}."
      },
      "name()": {
        "details": "See {IERC721Metadata-name}."
      },
      "owner()": {
        "details": "Returns the address of the current owner."
      },
      "ownerOf(uint256)": {
        "details": "See {IERC721-ownerOf}."
      },
      "renounceOwnership()": {
        "details": "Leaves the contract without owner. It will not be possible to call `onlyOwner` functions anymore. Can only be called by the current owner. NOTE: Renouncing ownership will leave the contract without an owner, thereby removing any functionality that is only available to the owner."
      },
      "safeTransferFrom(address,address,uint256)": {
        "details": "See {IERC721-safeTransferFrom}."
      },
      "safeTransferFrom(address,address,uint256,bytes)": {
        "details": "See {IERC721-safeTransferFrom}."
      },
      "setApprovalForAll(address,bool)": {
        "details": "See {IERC721-setApprovalForAll}."
      },
      "supportsInterface(bytes4)": {
        "details": "See {IERC165-supportsInterface}."
      },
      "symbol()": {
        "details": "See {IERC721Metadata-symbol}."
      },
      "tokenURI(uint256)": {
        "details": "See {IERC721Metadata-tokenURI}."
      },
      "transferFrom(address,address,uint256)": {
        "details": "See {IERC721-transferFrom}."
      },
      "transferOwnership(address)": {
        "details": "Transfers ownership of the contract to a new account (`newOwner`). Can only be called by the current owner."
      }
    },
    "version": 1
  },
  "userdoc": {
    "kind": "user",
    "methods": {
      "addUpgrade(uint256,string)": {
        "notice": "base function called only for metadata"
      },
      "getProperties()": {
        "notice": "where does the converstion between bytes & actual type happen ?"
      },
      "shouldAutoAccept()": {
        "notice": "Can be overridden to always return true/false"
      },
      "toggleAutoAccept(bool)": {
        "notice": "Can be overridden to be disabled"
      },
      "tokenURIs(uint256)": {
        "notice": "[id] -> tokenURI"
      },
      "upgrade(uint256,uint256)": {
        "notice": "hmm maybe add \"functions to execute\" inside the upgrade object / struct ?"
      },
      "upgrades(uint256,uint256)": {
        "notice": "[NFT] -> info"
      }
    },
    "version": 1
  }
}