{
  "contractName": "SpaceshipNFT",
  "abi": [
    {
      "inputs": [],
      "stateMutability": "nonpayable",
      "type": "constructor"
    },
    {
      "anonymous": false,
      "inputs": [
        {
          "indexed": true,
          "internalType": "address",
          "name": "owner",
          "type": "address"
        },
        {
          "indexed": true,
          "internalType": "address",
          "name": "approved",
          "type": "address"
        },
        {
          "indexed": true,
          "internalType": "uint256",
          "name": "tokenId",
          "type": "uint256"
        }
      ],
      "name": "Approval",
      "type": "event"
    },
    {
      "anonymous": false,
      "inputs": [
        {
          "indexed": true,
          "internalType": "address",
          "name": "owner",
          "type": "address"
        },
        {
          "indexed": true,
          "internalType": "address",
          "name": "operator",
          "type": "address"
        },
        {
          "indexed": false,
          "internalType": "bool",
          "name": "approved",
          "type": "bool"
        }
      ],
      "name": "ApprovalForAll",
      "type": "event"
    },
    {
      "anonymous": false,
      "inputs": [
        {
          "indexed": true,
          "internalType": "address",
          "name": "previousOwner",
          "type": "address"
        },
        {
          "indexed": true,
          "internalType": "address",
          "name": "newOwner",
          "type": "address"
        }
      ],
      "name": "OwnershipTransferred",
      "type": "event"
    },
    {
      "anonymous": false,
      "inputs": [
        {
          "indexed": true,
          "internalType": "address",
          "name": "from",
          "type": "address"
        },
        {
          "indexed": true,
          "internalType": "address",
          "name": "to",
          "type": "address"
        },
        {
          "indexed": true,
          "internalType": "uint256",
          "name": "tokenId",
          "type": "uint256"
        }
      ],
      "name": "Transfer",
      "type": "event"
    },
    {
      "stateMutability": "payable",
      "type": "fallback"
    },
    {
      "inputs": [
        {
          "internalType": "address",
          "name": "account",
          "type": "address"
        },
        {
          "internalType": "string",
          "name": "metadataUri",
          "type": "string"
        }
      ],
      "name": "_safeDynamicMint",
      "outputs": [
        {
          "internalType": "uint256",
          "name": "newId",
          "type": "uint256"
        }
      ],
      "stateMutability": "nonpayable",
      "type": "function"
    },
    {
      "inputs": [
        {
          "internalType": "uint256",
          "name": "tokenId",
          "type": "uint256"
        },
        {
          "internalType": "string",
          "name": "metadataUri",
          "type": "string"
        }
      ],
      "name": "addUpgrade",
      "outputs": [],
      "stateMutability": "nonpayable",
      "type": "function"
    },
    {
      "inputs": [
        {
          "internalType": "address",
          "name": "to",
          "type": "address"
        },
        {
          "internalType": "uint256",
          "name": "tokenId",
          "type": "uint256"
        }
      ],
      "name": "approve",
      "outputs": [],
      "stateMutability": "nonpayable",
      "type": "function"
    },
    {
      "inputs": [
        {
          "internalType": "address",
          "name": "owner",
          "type": "address"
        }
      ],
      "name": "balanceOf",
      "outputs": [
        {
          "internalType": "uint256",
          "name": "",
          "type": "uint256"
        }
      ],
      "stateMutability": "view",
      "type": "function"
    },
    {
      "inputs": [
        {
          "internalType": "bytes",
          "name": "key",
          "type": "bytes"
        },
        {
          "internalType": "bytes",
          "name": "value",
          "type": "bytes"
        }
      ],
      "name": "changeProperty",
      "outputs": [],
      "stateMutability": "nonpayable",
      "type": "function"
    },
    {
      "inputs": [
        {
          "internalType": "uint256",
          "name": "tokenId",
          "type": "uint256"
        }
      ],
      "name": "getApproved",
      "outputs": [
        {
          "internalType": "address",
          "name": "",
          "type": "address"
        }
      ],
      "stateMutability": "view",
      "type": "function"
    },
    {
      "inputs": [],
      "name": "getProperties",
      "outputs": [],
      "stateMutability": "nonpayable",
      "type": "function"
    },
    {
      "inputs": [
        {
          "internalType": "uint256",
          "name": "tokenId",
          "type": "uint256"
        }
      ],
      "name": "getUpgrades",
      "outputs": [
        {
          "internalType": "string[]",
          "name": "uris",
          "type": "string[]"
        }
      ],
      "stateMutability": "view",
      "type": "function"
    },
    {
      "inputs": [
        {
          "internalType": "address",
          "name": "owner",
          "type": "address"
        },
        {
          "internalType": "address",
          "name": "operator",
          "type": "address"
        }
      ],
      "name": "isApprovedForAll",
      "outputs": [
        {
          "internalType": "bool",
          "name": "",
          "type": "bool"
        }
      ],
      "stateMutability": "view",
      "type": "function"
    },
    {
      "inputs": [
        {
          "internalType": "uint256",
          "name": "",
          "type": "uint256"
        }
      ],
      "name": "minters",
      "outputs": [
        {
          "internalType": "address",
          "name": "",
          "type": "address"
        }
      ],
      "stateMutability": "view",
      "type": "function"
    },
    {
      "inputs": [],
      "name": "name",
      "outputs": [
        {
          "internalType": "string",
          "name": "",
          "type": "string"
        }
      ],
      "stateMutability": "view",
      "type": "function"
    },
    {
      "inputs": [],
      "name": "owner",
      "outputs": [
        {
          "internalType": "address",
          "name": "",
          "type": "address"
        }
      ],
      "stateMutability": "view",
      "type": "function"
    },
    {
      "inputs": [
        {
          "internalType": "uint256",
          "name": "tokenId",
          "type": "uint256"
        }
      ],
      "name": "ownerOf",
      "outputs": [
        {
          "internalType": "address",
          "name": "",
          "type": "address"
        }
      ],
      "stateMutability": "view",
      "type": "function"
    },
    {
      "inputs": [],
      "name": "readProperty",
      "outputs": [],
      "stateMutability": "nonpayable",
      "type": "function"
    },
    {
      "inputs": [],
      "name": "renounceOwnership",
      "outputs": [],
      "stateMutability": "nonpayable",
      "type": "function"
    },
    {
      "inputs": [
        {
          "internalType": "address",
          "name": "from",
          "type": "address"
        },
        {
          "internalType": "address",
          "name": "to",
          "type": "address"
        },
        {
          "internalType": "uint256",
          "name": "tokenId",
          "type": "uint256"
        }
      ],
      "name": "safeTransferFrom",
      "outputs": [],
      "stateMutability": "nonpayable",
      "type": "function"
    },
    {
      "inputs": [
        {
          "internalType": "address",
          "name": "from",
          "type": "address"
        },
        {
          "internalType": "address",
          "name": "to",
          "type": "address"
        },
        {
          "internalType": "uint256",
          "name": "tokenId",
          "type": "uint256"
        },
        {
          "internalType": "bytes",
          "name": "_data",
          "type": "bytes"
        }
      ],
      "name": "safeTransferFrom",
      "outputs": [],
      "stateMutability": "nonpayable",
      "type": "function"
    },
    {
      "inputs": [
        {
          "internalType": "address",
          "name": "operator",
          "type": "address"
        },
        {
          "internalType": "bool",
          "name": "approved",
          "type": "bool"
        }
      ],
      "name": "setApprovalForAll",
      "outputs": [],
      "stateMutability": "nonpayable",
      "type": "function"
    },
    {
      "inputs": [
        {
          "internalType": "string",
          "name": "baseURI_",
          "type": "string"
        }
      ],
      "name": "setBaseURI",
      "outputs": [],
      "stateMutability": "nonpayable",
      "type": "function"
    },
    {
      "inputs": [],
      "name": "shouldAutoAccept",
      "outputs": [
        {
          "internalType": "bool",
          "name": "",
          "type": "bool"
        }
      ],
      "stateMutability": "nonpayable",
      "type": "function"
    },
    {
      "inputs": [
        {
          "internalType": "bytes4",
          "name": "interfaceId",
          "type": "bytes4"
        }
      ],
      "name": "supportsInterface",
      "outputs": [
        {
          "internalType": "bool",
          "name": "",
          "type": "bool"
        }
      ],
      "stateMutability": "view",
      "type": "function"
    },
    {
      "inputs": [],
      "name": "symbol",
      "outputs": [
        {
          "internalType": "string",
          "name": "",
          "type": "string"
        }
      ],
      "stateMutability": "view",
      "type": "function"
    },
    {
      "inputs": [
        {
          "internalType": "bool",
          "name": "newVal",
          "type": "bool"
        }
      ],
      "name": "toggleAutoAccept",
      "outputs": [],
      "stateMutability": "nonpayable",
      "type": "function"
    },
    {
      "inputs": [],
      "name": "tokenCounter",
      "outputs": [
        {
          "internalType": "uint256",
          "name": "",
          "type": "uint256"
        }
      ],
      "stateMutability": "view",
      "type": "function"
    },
    {
      "inputs": [
        {
          "internalType": "uint256",
          "name": "tokenId",
          "type": "uint256"
        }
      ],
      "name": "tokenURI",
      "outputs": [
        {
          "internalType": "string",
          "name": "",
          "type": "string"
        }
      ],
      "stateMutability": "view",
      "type": "function"
    },
    {
      "inputs": [
        {
          "internalType": "uint256",
          "name": "",
          "type": "uint256"
        }
      ],
      "name": "tokenURIs",
      "outputs": [
        {
          "internalType": "string",
          "name": "",
          "type": "string"
        }
      ],
      "stateMutability": "view",
      "type": "function"
    },
    {
      "inputs": [
        {
          "internalType": "address",
          "name": "from",
          "type": "address"
        },
        {
          "internalType": "address",
          "name": "to",
          "type": "address"
        },
        {
          "internalType": "uint256",
          "name": "tokenId",
          "type": "uint256"
        }
      ],
      "name": "transferFrom",
      "outputs": [],
      "stateMutability": "nonpayable",
      "type": "function"
    },
    {
      "inputs": [
        {
          "internalType": "address",
          "name": "newOwner",
          "type": "address"
        }
      ],
      "name": "transferOwnership",
      "outputs": [],
      "stateMutability": "nonpayable",
      "type": "function"
    },
    {
      "inputs": [
        {
          "internalType": "uint256",
          "name": "id",
          "type": "uint256"
        },
        {
          "internalType": "uint256",
          "name": "updateIndex",
          "type": "uint256"
        }
      ],
      "name": "upgrade",
      "outputs": [],
      "stateMutability": "nonpayable",
      "type": "function"
    },
    {
      "inputs": [
        {
          "internalType": "uint256",
          "name": "",
          "type": "uint256"
        },
        {
          "internalType": "uint256",
          "name": "",
          "type": "uint256"
        }
      ],
      "name": "upgrades",
      "outputs": [
        {
          "internalType": "string",
          "name": "metadata",
          "type": "string"
        },
        {
          "internalType": "bool",
          "name": "available",
          "type": "bool"
        },
        {
          "internalType": "bool",
          "name": "isSet",
          "type": "bool"
        }
      ],
      "stateMutability": "view",
      "type": "function"
    },
    {
      "stateMutability": "payable",
      "type": "receive"
    },
    {
      "inputs": [
        {
          "internalType": "string",
          "name": "metadataUri",
          "type": "string"
        }
      ],
      "name": "mint",
      "outputs": [],
      "stateMutability": "nonpayable",
      "type": "function"
    },
    {
      "inputs": [
        {
          "internalType": "string",
          "name": "metadataUri",
          "type": "string"
        },
        {
          "internalType": "address",
          "name": "to",
          "type": "address"
        }
      ],
      "name": "mintTo",
      "outputs": [],
      "stateMutability": "nonpayable",
      "type": "function"
    }
  ],
  "bytecode": "0x6080604052600e805460ff191690553480156200001b57600080fd5b50604080518082018252600c81526b537472617465677947616d6560a01b602080830191825283518085019094526012845271111e5b985b5a58d4dd1c985d1959de53999d60721b9084015281519192916200007a916000916200010e565b508051620000909060019060208401906200010e565b505050620000ad620000a7620000b860201b60201c565b620000bc565b6000600855620001f1565b3390565b600780546001600160a01b038381166001600160a01b0319831681179093556040519116919082907f8be0079c531659141344cd1fd0a4f28419497f9722a3daafe3b4186f6b6457e090600090a35050565b8280546200011c90620001b4565b90600052602060002090601f0160209004810192826200014057600085556200018b565b82601f106200015b57805160ff19168380011785556200018b565b828001600101855582156200018b579182015b828111156200018b5782518255916020019190600101906200016e565b50620001999291506200019d565b5090565b5b808211156200019957600081556001016200019e565b600181811c90821680620001c957607f821691505b60208210811415620001eb57634e487b7160e01b600052602260045260246000fd5b50919050565b61233d80620002016000396000f3fe6080604052600436106101cf5760003560e01c806370a08231116100f6578063c87b56dd1161008f578063e985e9c511610061578063e985e9c51461059b578063ec0cfd0b1461020d578063f2fde38b146105e4578063fe42a2d91461060457005b8063c87b56dd14610516578063c935949114610536578063d082e38114610565578063d85d3d271461057b57005b806395d89b41116100c857806395d89b41146104a1578063a22cb465146104b6578063b88d4fde146104d6578063c78a048e146104f657005b806370a082311461040a578063715018a6146104385780638623ec7b1461044d5780638da5cb5b1461048357005b8063311a20f81161016857806355f804b31161013a57806355f804b31461037c5780636352211e1461039c5780636c8b703f146103bc5780637012f04e146103dc57005b8063311a20f8146102ee5780633c8880061461030f57806342842e0e1461033c578063451450ec1461035c57005b8063092e94aa116101a1578063092e94aa14610276578063095ea7b31461029657806313a7b7fa146102b657806323b872dd146102ce57005b806301ffc9a7146101d8578063061a992b1461020d57806306fdde031461021c578063081812fc1461023e57005b366101d657005b005b3480156101e457600080fd5b506101f86101f3366004611b8d565b610624565b60405190151581526020015b60405180910390f35b34801561021957600080fd5b50005b34801561022857600080fd5b50610231610678565b6040516102049190611bfe565b34801561024a57600080fd5b5061025e610259366004611c11565b61070a565b6040516001600160a01b039091168152602001610204565b34801561028257600080fd5b506101d6610291366004611cd6565b6107a4565b3480156102a257600080fd5b506101d66102b1366004611d39565b61083b565b3480156102c257600080fd5b50600e5460ff166101f8565b3480156102da57600080fd5b506101d66102e9366004611d63565b610951565b3480156102fa57600080fd5b506101d6610309366004611de8565b50505050565b34801561031b57600080fd5b5061032f61032a366004611c11565b610982565b6040516102049190611e54565b34801561034857600080fd5b506101d6610357366004611d63565b610b8b565b34801561036857600080fd5b506101d6610377366004611eb6565b610ba6565b34801561038857600080fd5b506101d6610397366004611ed8565b610bfd565b3480156103a857600080fd5b5061025e6103b7366004611c11565b610c14565b3480156103c857600080fd5b506102316103d7366004611c11565b610c8b565b3480156103e857600080fd5b506101d66103f7366004611f1d565b600e805460ff1916911515919091179055565b34801561041657600080fd5b5061042a610425366004611f38565b610d25565b604051908152602001610204565b34801561044457600080fd5b506101d6610dac565b34801561045957600080fd5b5061025e610468366004611c11565b600b602052600090815260409020546001600160a01b031681565b34801561048f57600080fd5b506007546001600160a01b031661025e565b3480156104ad57600080fd5b50610231610de0565b3480156104c257600080fd5b506101d66104d1366004611f53565b610def565b3480156104e257600080fd5b506101d66104f1366004611f86565b610eb4565b34801561050257600080fd5b5061042a610511366004612002565b610ee6565b34801561052257600080fd5b50610231610531366004611c11565b610f44565b34801561054257600080fd5b50610556610551366004611eb6565b611049565b6040516102049392919061203a565b34801561057157600080fd5b5061042a60085481565b34801561058757600080fd5b506101d6610596366004612064565b61111e565b3480156105a757600080fd5b506101f86105b63660046120a6565b6001600160a01b03918216600090815260056020908152604080832093909416825291909152205460ff1690565b3480156105f057600080fd5b506101d66105ff366004611f38565b611188565b34801561061057600080fd5b506101d661061f3660046120d0565b611223565b60006001600160e01b031982166380ac58cd60e01b148061065557506001600160e01b03198216635b5e139f60e01b145b8061067057506301ffc9a760e01b6001600160e01b03198316145b92915050565b565b60606000805461068790612124565b80601f01602080910402602001604051908101604052809291908181526020018280546106b390612124565b80156107005780601f106106d557610100808354040283529160200191610700565b820191906000526020600020905b8154815290600101906020018083116106e357829003601f168201915b5050505050905090565b6000818152600260205260408120546001600160a01b03166107885760405162461bcd60e51b815260206004820152602c60248201527f4552433732313a20617070726f76656420717565727920666f72206e6f6e657860448201526b34b9ba32b73a103a37b5b2b760a11b60648201526084015b60405180910390fd5b506000908152600460205260409020546001600160a01b031690565b6000828152600b6020526040902054339083906001600160a01b03168214806107ef5750816001600160a01b03166107e46007546001600160a01b031690565b6001600160a01b0316145b6108315760405162461bcd60e51b815260206004820152601360248201527227b7363c9036b4b73a32b910131037bbb732b960691b604482015260640161077f565b610309848461128d565b600061084682610c14565b9050806001600160a01b0316836001600160a01b031614156108b45760405162461bcd60e51b815260206004820152602160248201527f4552433732313a20617070726f76616c20746f2063757272656e74206f776e656044820152603960f91b606482015260840161077f565b336001600160a01b03821614806108d057506108d081336105b6565b6109425760405162461bcd60e51b815260206004820152603860248201527f4552433732313a20617070726f76652063616c6c6572206973206e6f74206f7760448201527f6e6572206e6f7220617070726f76656420666f7220616c6c0000000000000000606482015260840161077f565b61094c838361134f565b505050565b61095b33826113bd565b6109775760405162461bcd60e51b815260040161077f9061215f565b61094c8383836114b4565b6000818152600a60209081526040808320805482518185028101850190935280835260609493849084015b82821015610a9757838290600052602060002090600202016040518060600160405290816000820180546109e090612124565b80601f0160208091040260200160405190810160405280929190818152602001828054610a0c90612124565b8015610a595780601f10610a2e57610100808354040283529160200191610a59565b820191906000526020600020905b815481529060010190602001808311610a3c57829003601f168201915b505050918352505060019182015460ff80821615156020808501919091526101009092041615156040909201919091529183529290920191016109ad565b505050509050805160001415610ada576040805160008082526020820190925290610ad2565b6060815260200190600190039081610abd5790505b509392505050565b805167ffffffffffffffff811115610af457610af4611c2a565b604051908082528060200260200182016040528015610b2757816020015b6060815260200190600190039081610b125790505b50915060005b8151811015610b8457818181518110610b4857610b486121b0565b602002602001015160000151838281518110610b6657610b666121b0565b60200260200101819052508080610b7c906121dc565b915050610b2d565b5050919050565b61094c83838360405180602001604052806000815250610eb4565b8133610bb182610c14565b6001600160a01b031614610bf35760405162461bcd60e51b8152602060048201526009602482015268139bdd081bdddb995960ba1b604482015260640161077f565b61094c8383611654565b8051610c10906009906020840190611ade565b5050565b6000818152600260205260408120546001600160a01b0316806106705760405162461bcd60e51b815260206004820152602960248201527f4552433732313a206f776e657220717565727920666f72206e6f6e657869737460448201526832b73a103a37b5b2b760b91b606482015260840161077f565b600c6020526000908152604090208054610ca490612124565b80601f0160208091040260200160405190810160405280929190818152602001828054610cd090612124565b8015610d1d5780601f10610cf257610100808354040283529160200191610d1d565b820191906000526020600020905b815481529060010190602001808311610d0057829003601f168201915b505050505081565b60006001600160a01b038216610d905760405162461bcd60e51b815260206004820152602a60248201527f4552433732313a2062616c616e636520717565727920666f7220746865207a65604482015269726f206164647265737360b01b606482015260840161077f565b506001600160a01b031660009081526003602052604090205490565b6007546001600160a01b03163314610dd65760405162461bcd60e51b815260040161077f906121f7565b61067660006117ad565b60606001805461068790612124565b6001600160a01b038216331415610e485760405162461bcd60e51b815260206004820152601960248201527f4552433732313a20617070726f766520746f2063616c6c657200000000000000604482015260640161077f565b3360008181526005602090815260408083206001600160a01b03871680855290835292819020805460ff191686151590811790915590519081529192917f17307eab39ab6107e8899845ad3d59bd9653f200f220920489ca2b5937696c31910160405180910390a35050565b610ebe33836113bd565b610eda5760405162461bcd60e51b815260040161077f9061215f565b610309848484846117ff565b600854600090610ef68184611832565b6000818152600b6020526040902080546001600160a01b0319166001600160a01b038616179055610f278482611851565b60088054906000610f37836121dc565b9091555090949350505050565b6000818152600260205260409020546060906001600160a01b0316610fab5760405162461bcd60e51b815260206004820152601f60248201527f55524920717565727920666f72206e6f6e6578697374656e7420746f6b656e00604482015260640161077f565b6000828152600c602052604090208054610fc490612124565b80601f0160208091040260200160405190810160405280929190818152602001828054610ff090612124565b801561103d5780601f106110125761010080835404028352916020019161103d565b820191906000526020600020905b81548152906001019060200180831161102057829003601f168201915b50505050509050919050565b600a602052816000526040600020818154811061106557600080fd5b90600052602060002090600202016000915091505080600001805461108990612124565b80601f01602080910402602001604051908101604052809291908181526020018280546110b590612124565b80156111025780601f106110d757610100808354040283529160200191611102565b820191906000526020600020905b8154815290600101906020018083116110e557829003601f168201915b5050506001909301549192505060ff8082169161010090041683565b6007546001600160a01b031633146111485760405162461bcd60e51b815260040161077f906121f7565b61094c3383838080601f016020809104026020016040519081016040528093929190818152602001838380828437600092019190915250610ee692505050565b6007546001600160a01b031633146111b25760405162461bcd60e51b815260040161077f906121f7565b6001600160a01b0381166112175760405162461bcd60e51b815260206004820152602660248201527f4f776e61626c653a206e6577206f776e657220697320746865207a65726f206160448201526564647265737360d01b606482015260840161077f565b611220816117ad565b50565b6007546001600160a01b0316331461124d5760405162461bcd60e51b815260040161077f906121f7565b6103098184848080601f016020809104026020016040519081016040528093929190818152602001838380828437600092019190915250610ee692505050565b60408051606081018252828152600160208083018290526000838501819052868152600a82529384208054928301815584529283902082518051939485946002909402909201926112e19284920190611ade565b5060208201516001909101805460409093015115156101000261ff00199215159290921661ffff19909316929092171790556000611321600e5460ff1690565b90508015610309576000848152600a602052604090205461030990859061134a9060019061222c565b611654565b600081815260046020526040902080546001600160a01b0319166001600160a01b038416908117909155819061138482610c14565b6001600160a01b03167f8c5be1e5ebec7d5bd14f71427d1e84f3dd0314c0f7b2291e5b200ac8c7c3b92560405160405180910390a45050565b6000818152600260205260408120546001600160a01b03166114365760405162461bcd60e51b815260206004820152602c60248201527f4552433732313a206f70657261746f7220717565727920666f72206e6f6e657860448201526b34b9ba32b73a103a37b5b2b760a11b606482015260840161077f565b600061144183610c14565b9050806001600160a01b0316846001600160a01b0316148061147c5750836001600160a01b03166114718461070a565b6001600160a01b0316145b806114ac57506001600160a01b0380821660009081526005602090815260408083209388168352929052205460ff165b949350505050565b826001600160a01b03166114c782610c14565b6001600160a01b03161461152f5760405162461bcd60e51b815260206004820152602960248201527f4552433732313a207472616e73666572206f6620746f6b656e2074686174206960448201526839903737ba1037bbb760b91b606482015260840161077f565b6001600160a01b0382166115915760405162461bcd60e51b8152602060048201526024808201527f4552433732313a207472616e7366657220746f20746865207a65726f206164646044820152637265737360e01b606482015260840161077f565b61159c60008261134f565b6001600160a01b03831660009081526003602052604081208054600192906115c590849061222c565b90915550506001600160a01b03821660009081526003602052604081208054600192906115f3908490612243565b909155505060008181526002602052604080822080546001600160a01b0319166001600160a01b0386811691821790925591518493918716917fddf252ad1be2c89b69c2b068fc378daa952ba7f163c4a11628f55a4df523b3ef91a4505050565b6000828152600a602052604090205481106116b15760405162461bcd60e51b815260206004820152601960248201527f496e76616c6964206964206f7220757064617465496e64657800000000000000604482015260640161077f565b6000828152600a602052604081208054839081106116d1576116d16121b0565b90600052602060002090600202016040518060600160405290816000820180546116fa90612124565b80601f016020809104026020016040519081016040528092919081815260200182805461172690612124565b80156117735780601f1061174857610100808354040283529160200191611773565b820191906000526020600020905b81548152906001019060200180831161175657829003601f168201915b50505091835250506001919091015460ff80821615156020840152610100909104161515604090910152805190915061094c908490611832565b600780546001600160a01b038381166001600160a01b0319831681179093556040519116919082907f8be0079c531659141344cd1fd0a4f28419497f9722a3daafe3b4186f6b6457e090600090a35050565b61180a8484846114b4565b6118168484848461186b565b6103095760405162461bcd60e51b815260040161077f9061225b565b6000828152600c60209081526040909120825161094c92840190611ade565b610c10828260405180602001604052806000815250611969565b60006001600160a01b0384163b1561195e57604051630a85bd0160e11b81526001600160a01b0385169063150b7a02906118af9033908990889088906004016122ad565b6020604051808303816000875af19250505080156118ea575060408051601f3d908101601f191682019092526118e7918101906122ea565b60015b611944573d808015611918576040519150601f19603f3d011682016040523d82523d6000602084013e61191d565b606091505b50805161193c5760405162461bcd60e51b815260040161077f9061225b565b805181602001fd5b6001600160e01b031916630a85bd0160e11b1490506114ac565b506001949350505050565b611973838361199c565b611980600084848461186b565b61094c5760405162461bcd60e51b815260040161077f9061225b565b6001600160a01b0382166119f25760405162461bcd60e51b815260206004820181905260248201527f4552433732313a206d696e7420746f20746865207a65726f2061646472657373604482015260640161077f565b6000818152600260205260409020546001600160a01b031615611a575760405162461bcd60e51b815260206004820152601c60248201527f4552433732313a20746f6b656e20616c7265616479206d696e74656400000000604482015260640161077f565b6001600160a01b0382166000908152600360205260408120805460019290611a80908490612243565b909155505060008181526002602052604080822080546001600160a01b0319166001600160a01b03861690811790915590518392907fddf252ad1be2c89b69c2b068fc378daa952ba7f163c4a11628f55a4df523b3ef908290a45050565b828054611aea90612124565b90600052602060002090601f016020900481019282611b0c5760008555611b52565b82601f10611b2557805160ff1916838001178555611b52565b82800160010185558215611b52579182015b82811115611b52578251825591602001919060010190611b37565b50611b5e929150611b62565b5090565b5b80821115611b5e5760008155600101611b63565b6001600160e01b03198116811461122057600080fd5b600060208284031215611b9f57600080fd5b8135611baa81611b77565b9392505050565b6000815180845260005b81811015611bd757602081850181015186830182015201611bbb565b81811115611be9576000602083870101525b50601f01601f19169290920160200192915050565b602081526000611baa6020830184611bb1565b600060208284031215611c2357600080fd5b5035919050565b634e487b7160e01b600052604160045260246000fd5b600067ffffffffffffffff80841115611c5b57611c5b611c2a565b604051601f8501601f19908116603f01168101908282118183101715611c8357611c83611c2a565b81604052809350858152868686011115611c9c57600080fd5b858560208301376000602087830101525050509392505050565b600082601f830112611cc757600080fd5b611baa83833560208501611c40565b60008060408385031215611ce957600080fd5b82359150602083013567ffffffffffffffff811115611d0757600080fd5b611d1385828601611cb6565b9150509250929050565b80356001600160a01b0381168114611d3457600080fd5b919050565b60008060408385031215611d4c57600080fd5b611d5583611d1d565b946020939093013593505050565b600080600060608486031215611d7857600080fd5b611d8184611d1d565b9250611d8f60208501611d1d565b9150604084013590509250925092565b60008083601f840112611db157600080fd5b50813567ffffffffffffffff811115611dc957600080fd5b602083019150836020828501011115611de157600080fd5b9250929050565b60008060008060408587031215611dfe57600080fd5b843567ffffffffffffffff80821115611e1657600080fd5b611e2288838901611d9f565b90965094506020870135915080821115611e3b57600080fd5b50611e4887828801611d9f565b95989497509550505050565b6000602080830181845280855180835260408601915060408160051b870101925083870160005b82811015611ea957603f19888603018452611e97858351611bb1565b94509285019290850190600101611e7b565b5092979650505050505050565b60008060408385031215611ec957600080fd5b50508035926020909101359150565b600060208284031215611eea57600080fd5b813567ffffffffffffffff811115611f0157600080fd5b6114ac84828501611cb6565b80358015158114611d3457600080fd5b600060208284031215611f2f57600080fd5b611baa82611f0d565b600060208284031215611f4a57600080fd5b611baa82611d1d565b60008060408385031215611f6657600080fd5b611f6f83611d1d565b9150611f7d60208401611f0d565b90509250929050565b60008060008060808587031215611f9c57600080fd5b611fa585611d1d565b9350611fb360208601611d1d565b925060408501359150606085013567ffffffffffffffff811115611fd657600080fd5b8501601f81018713611fe757600080fd5b611ff687823560208401611c40565b91505092959194509250565b6000806040838503121561201557600080fd5b61201e83611d1d565b9150602083013567ffffffffffffffff811115611d0757600080fd5b60608152600061204d6060830186611bb1565b931515602083015250901515604090910152919050565b6000806020838503121561207757600080fd5b823567ffffffffffffffff81111561208e57600080fd5b61209a85828601611d9f565b90969095509350505050565b600080604083850312156120b957600080fd5b6120c283611d1d565b9150611f7d60208401611d1d565b6000806000604084860312156120e557600080fd5b833567ffffffffffffffff8111156120fc57600080fd5b61210886828701611d9f565b909450925061211b905060208501611d1d565b90509250925092565b600181811c9082168061213857607f821691505b6020821081141561215957634e487b7160e01b600052602260045260246000fd5b50919050565b60208082526031908201527f4552433732313a207472616e736665722063616c6c6572206973206e6f74206f6040820152701ddb995c881b9bdc88185c1c1c9bdd9959607a1b606082015260800190565b634e487b7160e01b600052603260045260246000fd5b634e487b7160e01b600052601160045260246000fd5b60006000198214156121f0576121f06121c6565b5060010190565b6020808252818101527f4f776e61626c653a2063616c6c6572206973206e6f7420746865206f776e6572604082015260600190565b60008282101561223e5761223e6121c6565b500390565b60008219821115612256576122566121c6565b500190565b60208082526032908201527f4552433732313a207472616e7366657220746f206e6f6e20455243373231526560408201527131b2b4bb32b91034b6b83632b6b2b73a32b960711b606082015260800190565b6001600160a01b03858116825284166020820152604081018390526080606082018190526000906122e090830184611bb1565b9695505050505050565b6000602082840312156122fc57600080fd5b8151611baa81611b7756fea26469706673582212203d444799dfe617051ff62ead52167efa0f9cd0cd4c7dd91313f6b2cc7983f3b564736f6c634300080a0033",
  "immutableReferences": {},
  "source": "pragma solidity 0.8.10;\r\n\r\nimport \"./lib/DynamicERC721.sol\";\r\n\r\ncontract SpaceshipNFT is DynamicERC721 {\r\n    constructor () ERC721(\"StrategyGame\", \"DynamicStrategyNft\"){\r\n    }\r\n\r\n    function mint(string calldata metadataUri) external onlyOwner {\r\n        super._safeDynamicMint(msg.sender, metadataUri);\r\n    }\r\n\r\n    function mintTo(string calldata metadataUri, address to) external onlyOwner {\r\n        super._safeDynamicMint(to, metadataUri);\r\n    }\r\n}\r\n",
  "sourcePath": "C:\\Projects\\Crypto\\Projects\\dynamic-nfts\\contracts\\SpaceshipNFT.sol",
  "compiler": {
    "name": "solc",
    "version": "0.8.10+commit.fc410830.Emscripten.clang"
  },
  "schemaVersion": "3.4.3",
  "updatedAt": "2021-11-29T13:24:17.689Z",
  "devdoc": {
    "kind": "dev",
    "methods": {
      "approve(address,uint256)": {
        "details": "See {IERC721-approve}."
      },
      "balanceOf(address)": {
        "details": "See {IERC721-balanceOf}."
      },
      "getApproved(uint256)": {
        "details": "See {IERC721-getApproved}."
      },
      "isApprovedForAll(address,address)": {
        "details": "See {IERC721-isApprovedForAll}."
      },
      "name()": {
        "details": "See {IERC721Metadata-name}."
      },
      "owner()": {
        "details": "Returns the address of the current owner."
      },
      "ownerOf(uint256)": {
        "details": "See {IERC721-ownerOf}."
      },
      "renounceOwnership()": {
        "details": "Leaves the contract without owner. It will not be possible to call `onlyOwner` functions anymore. Can only be called by the current owner. NOTE: Renouncing ownership will leave the contract without an owner, thereby removing any functionality that is only available to the owner."
      },
      "safeTransferFrom(address,address,uint256)": {
        "details": "See {IERC721-safeTransferFrom}."
      },
      "safeTransferFrom(address,address,uint256,bytes)": {
        "details": "See {IERC721-safeTransferFrom}."
      },
      "setApprovalForAll(address,bool)": {
        "details": "See {IERC721-setApprovalForAll}."
      },
      "supportsInterface(bytes4)": {
        "details": "See {IERC165-supportsInterface}."
      },
      "symbol()": {
        "details": "See {IERC721Metadata-symbol}."
      },
      "tokenURI(uint256)": {
        "details": "See {IERC721Metadata-tokenURI}."
      },
      "transferFrom(address,address,uint256)": {
        "details": "See {IERC721-transferFrom}."
      },
      "transferOwnership(address)": {
        "details": "Transfers ownership of the contract to a new account (`newOwner`). Can only be called by the current owner."
      }
    },
    "version": 1
  },
  "userdoc": {
    "kind": "user",
    "methods": {
      "addUpgrade(uint256,string)": {
        "notice": "base function called only for metadata"
      },
      "getProperties()": {
        "notice": "where does the converstion between bytes & actual type happen ?"
      },
      "shouldAutoAccept()": {
        "notice": "Can be overridden to always return true/false"
      },
      "toggleAutoAccept(bool)": {
        "notice": "Can be overridden to be disabled"
      },
      "tokenURIs(uint256)": {
        "notice": "[id] -> tokenURI"
      },
      "upgrade(uint256,uint256)": {
        "notice": "hmm maybe add \"functions to execute\" inside the upgrade object / struct ?"
      },
      "upgrades(uint256,uint256)": {
        "notice": "[NFT] -> info"
      }
    },
    "version": 1
  }
}