{
  "contractName": "WeaponNFTFactory",
  "abi": [
    {
      "inputs": [],
      "stateMutability": "nonpayable",
      "type": "constructor"
    },
    {
      "anonymous": false,
      "inputs": [
        {
          "indexed": true,
          "internalType": "address",
          "name": "owner",
          "type": "address"
        },
        {
          "indexed": true,
          "internalType": "address",
          "name": "approved",
          "type": "address"
        },
        {
          "indexed": true,
          "internalType": "uint256",
          "name": "tokenId",
          "type": "uint256"
        }
      ],
      "name": "Approval",
      "type": "event"
    },
    {
      "anonymous": false,
      "inputs": [
        {
          "indexed": true,
          "internalType": "address",
          "name": "owner",
          "type": "address"
        },
        {
          "indexed": true,
          "internalType": "address",
          "name": "operator",
          "type": "address"
        },
        {
          "indexed": false,
          "internalType": "bool",
          "name": "approved",
          "type": "bool"
        }
      ],
      "name": "ApprovalForAll",
      "type": "event"
    },
    {
      "anonymous": false,
      "inputs": [
        {
          "indexed": true,
          "internalType": "address",
          "name": "previousOwner",
          "type": "address"
        },
        {
          "indexed": true,
          "internalType": "address",
          "name": "newOwner",
          "type": "address"
        }
      ],
      "name": "OwnershipTransferred",
      "type": "event"
    },
    {
      "anonymous": false,
      "inputs": [
        {
          "indexed": true,
          "internalType": "address",
          "name": "from",
          "type": "address"
        },
        {
          "indexed": true,
          "internalType": "address",
          "name": "to",
          "type": "address"
        },
        {
          "indexed": true,
          "internalType": "uint256",
          "name": "tokenId",
          "type": "uint256"
        }
      ],
      "name": "Transfer",
      "type": "event"
    },
    {
      "stateMutability": "payable",
      "type": "fallback"
    },
    {
      "inputs": [
        {
          "internalType": "address",
          "name": "account",
          "type": "address"
        },
        {
          "internalType": "string",
          "name": "metadataUri",
          "type": "string"
        }
      ],
      "name": "_safeDynamicMint",
      "outputs": [
        {
          "internalType": "uint256",
          "name": "newId",
          "type": "uint256"
        }
      ],
      "stateMutability": "nonpayable",
      "type": "function"
    },
    {
      "inputs": [
        {
          "internalType": "uint256",
          "name": "tokenId",
          "type": "uint256"
        },
        {
          "internalType": "string",
          "name": "metadataUri",
          "type": "string"
        }
      ],
      "name": "addUpgrade",
      "outputs": [],
      "stateMutability": "nonpayable",
      "type": "function"
    },
    {
      "inputs": [
        {
          "internalType": "address",
          "name": "to",
          "type": "address"
        },
        {
          "internalType": "uint256",
          "name": "tokenId",
          "type": "uint256"
        }
      ],
      "name": "approve",
      "outputs": [],
      "stateMutability": "nonpayable",
      "type": "function"
    },
    {
      "inputs": [
        {
          "internalType": "address",
          "name": "owner",
          "type": "address"
        }
      ],
      "name": "balanceOf",
      "outputs": [
        {
          "internalType": "uint256",
          "name": "",
          "type": "uint256"
        }
      ],
      "stateMutability": "view",
      "type": "function"
    },
    {
      "inputs": [
        {
          "internalType": "address",
          "name": "sender",
          "type": "address"
        }
      ],
      "name": "canMint",
      "outputs": [
        {
          "internalType": "bool",
          "name": "",
          "type": "bool"
        }
      ],
      "stateMutability": "nonpayable",
      "type": "function"
    },
    {
      "inputs": [
        {
          "internalType": "bytes",
          "name": "key",
          "type": "bytes"
        },
        {
          "internalType": "bytes",
          "name": "value",
          "type": "bytes"
        }
      ],
      "name": "changeProperty",
      "outputs": [],
      "stateMutability": "nonpayable",
      "type": "function"
    },
    {
      "inputs": [
        {
          "internalType": "uint256",
          "name": "tokenId",
          "type": "uint256"
        }
      ],
      "name": "getApproved",
      "outputs": [
        {
          "internalType": "address",
          "name": "",
          "type": "address"
        }
      ],
      "stateMutability": "view",
      "type": "function"
    },
    {
      "inputs": [],
      "name": "getProperties",
      "outputs": [],
      "stateMutability": "nonpayable",
      "type": "function"
    },
    {
      "inputs": [
        {
          "internalType": "uint256",
          "name": "tokenId",
          "type": "uint256"
        }
      ],
      "name": "getUpgrades",
      "outputs": [
        {
          "internalType": "string[]",
          "name": "uris",
          "type": "string[]"
        }
      ],
      "stateMutability": "view",
      "type": "function"
    },
    {
      "inputs": [
        {
          "internalType": "address",
          "name": "owner",
          "type": "address"
        },
        {
          "internalType": "address",
          "name": "operator",
          "type": "address"
        }
      ],
      "name": "isApprovedForAll",
      "outputs": [
        {
          "internalType": "bool",
          "name": "",
          "type": "bool"
        }
      ],
      "stateMutability": "view",
      "type": "function"
    },
    {
      "inputs": [
        {
          "internalType": "uint256",
          "name": "",
          "type": "uint256"
        }
      ],
      "name": "meta",
      "outputs": [
        {
          "internalType": "string",
          "name": "",
          "type": "string"
        }
      ],
      "stateMutability": "view",
      "type": "function"
    },
    {
      "inputs": [
        {
          "internalType": "string",
          "name": "metadataUri",
          "type": "string"
        },
        {
          "internalType": "address",
          "name": "to",
          "type": "address"
        }
      ],
      "name": "mintTo",
      "outputs": [],
      "stateMutability": "nonpayable",
      "type": "function"
    },
    {
      "inputs": [
        {
          "internalType": "uint256",
          "name": "",
          "type": "uint256"
        }
      ],
      "name": "minters",
      "outputs": [
        {
          "internalType": "address",
          "name": "",
          "type": "address"
        }
      ],
      "stateMutability": "view",
      "type": "function"
    },
    {
      "inputs": [],
      "name": "name",
      "outputs": [
        {
          "internalType": "string",
          "name": "",
          "type": "string"
        }
      ],
      "stateMutability": "view",
      "type": "function"
    },
    {
      "inputs": [],
      "name": "owner",
      "outputs": [
        {
          "internalType": "address",
          "name": "",
          "type": "address"
        }
      ],
      "stateMutability": "view",
      "type": "function"
    },
    {
      "inputs": [
        {
          "internalType": "uint256",
          "name": "tokenId",
          "type": "uint256"
        }
      ],
      "name": "ownerOf",
      "outputs": [
        {
          "internalType": "address",
          "name": "",
          "type": "address"
        }
      ],
      "stateMutability": "view",
      "type": "function"
    },
    {
      "inputs": [],
      "name": "readProperty",
      "outputs": [],
      "stateMutability": "nonpayable",
      "type": "function"
    },
    {
      "inputs": [],
      "name": "renounceOwnership",
      "outputs": [],
      "stateMutability": "nonpayable",
      "type": "function"
    },
    {
      "inputs": [
        {
          "internalType": "address",
          "name": "from",
          "type": "address"
        },
        {
          "internalType": "address",
          "name": "to",
          "type": "address"
        },
        {
          "internalType": "uint256",
          "name": "tokenId",
          "type": "uint256"
        }
      ],
      "name": "safeTransferFrom",
      "outputs": [],
      "stateMutability": "nonpayable",
      "type": "function"
    },
    {
      "inputs": [
        {
          "internalType": "address",
          "name": "from",
          "type": "address"
        },
        {
          "internalType": "address",
          "name": "to",
          "type": "address"
        },
        {
          "internalType": "uint256",
          "name": "tokenId",
          "type": "uint256"
        },
        {
          "internalType": "bytes",
          "name": "_data",
          "type": "bytes"
        }
      ],
      "name": "safeTransferFrom",
      "outputs": [],
      "stateMutability": "nonpayable",
      "type": "function"
    },
    {
      "inputs": [
        {
          "internalType": "address",
          "name": "operator",
          "type": "address"
        },
        {
          "internalType": "bool",
          "name": "approved",
          "type": "bool"
        }
      ],
      "name": "setApprovalForAll",
      "outputs": [],
      "stateMutability": "nonpayable",
      "type": "function"
    },
    {
      "inputs": [
        {
          "internalType": "string",
          "name": "baseURI_",
          "type": "string"
        }
      ],
      "name": "setBaseURI",
      "outputs": [],
      "stateMutability": "nonpayable",
      "type": "function"
    },
    {
      "inputs": [],
      "name": "shouldAutoAccept",
      "outputs": [
        {
          "internalType": "bool",
          "name": "",
          "type": "bool"
        }
      ],
      "stateMutability": "nonpayable",
      "type": "function"
    },
    {
      "inputs": [
        {
          "internalType": "bytes4",
          "name": "interfaceId",
          "type": "bytes4"
        }
      ],
      "name": "supportsInterface",
      "outputs": [
        {
          "internalType": "bool",
          "name": "",
          "type": "bool"
        }
      ],
      "stateMutability": "view",
      "type": "function"
    },
    {
      "inputs": [],
      "name": "symbol",
      "outputs": [
        {
          "internalType": "string",
          "name": "",
          "type": "string"
        }
      ],
      "stateMutability": "view",
      "type": "function"
    },
    {
      "inputs": [
        {
          "internalType": "bool",
          "name": "newVal",
          "type": "bool"
        }
      ],
      "name": "toggleAutoAccept",
      "outputs": [],
      "stateMutability": "nonpayable",
      "type": "function"
    },
    {
      "inputs": [],
      "name": "tokenCounter",
      "outputs": [
        {
          "internalType": "uint256",
          "name": "",
          "type": "uint256"
        }
      ],
      "stateMutability": "view",
      "type": "function"
    },
    {
      "inputs": [
        {
          "internalType": "uint256",
          "name": "tokenId",
          "type": "uint256"
        }
      ],
      "name": "tokenURI",
      "outputs": [
        {
          "internalType": "string",
          "name": "",
          "type": "string"
        }
      ],
      "stateMutability": "view",
      "type": "function"
    },
    {
      "inputs": [
        {
          "internalType": "uint256",
          "name": "",
          "type": "uint256"
        }
      ],
      "name": "tokenURIs",
      "outputs": [
        {
          "internalType": "string",
          "name": "",
          "type": "string"
        }
      ],
      "stateMutability": "view",
      "type": "function"
    },
    {
      "inputs": [
        {
          "internalType": "address",
          "name": "from",
          "type": "address"
        },
        {
          "internalType": "address",
          "name": "to",
          "type": "address"
        },
        {
          "internalType": "uint256",
          "name": "tokenId",
          "type": "uint256"
        }
      ],
      "name": "transferFrom",
      "outputs": [],
      "stateMutability": "nonpayable",
      "type": "function"
    },
    {
      "inputs": [
        {
          "internalType": "address",
          "name": "newOwner",
          "type": "address"
        }
      ],
      "name": "transferOwnership",
      "outputs": [],
      "stateMutability": "nonpayable",
      "type": "function"
    },
    {
      "inputs": [
        {
          "internalType": "uint256",
          "name": "id",
          "type": "uint256"
        },
        {
          "internalType": "uint256",
          "name": "updateIndex",
          "type": "uint256"
        }
      ],
      "name": "upgrade",
      "outputs": [],
      "stateMutability": "nonpayable",
      "type": "function"
    },
    {
      "inputs": [
        {
          "internalType": "uint256",
          "name": "",
          "type": "uint256"
        },
        {
          "internalType": "uint256",
          "name": "",
          "type": "uint256"
        }
      ],
      "name": "upgrades",
      "outputs": [
        {
          "internalType": "string",
          "name": "metadata",
          "type": "string"
        },
        {
          "internalType": "bool",
          "name": "available",
          "type": "bool"
        },
        {
          "internalType": "bool",
          "name": "isSet",
          "type": "bool"
        }
      ],
      "stateMutability": "view",
      "type": "function"
    },
    {
      "inputs": [
        {
          "internalType": "uint256",
          "name": "",
          "type": "uint256"
        }
      ],
      "name": "weapons",
      "outputs": [
        {
          "internalType": "uint256",
          "name": "level",
          "type": "uint256"
        },
        {
          "internalType": "uint256",
          "name": "damage",
          "type": "uint256"
        },
        {
          "internalType": "uint256",
          "name": "agility",
          "type": "uint256"
        }
      ],
      "stateMutability": "view",
      "type": "function"
    },
    {
      "stateMutability": "payable",
      "type": "receive"
    },
    {
      "inputs": [
        {
          "internalType": "string",
          "name": "metadataUri",
          "type": "string"
        }
      ],
      "name": "mint",
      "outputs": [],
      "stateMutability": "nonpayable",
      "type": "function"
    },
    {
      "inputs": [
        {
          "internalType": "uint256",
          "name": "tokenId",
          "type": "uint256"
        }
      ],
      "name": "evolve",
      "outputs": [],
      "stateMutability": "nonpayable",
      "type": "function"
    },
    {
      "inputs": [
        {
          "internalType": "uint256",
          "name": "tokenId",
          "type": "uint256"
        }
      ],
      "name": "refresh",
      "outputs": [],
      "stateMutability": "nonpayable",
      "type": "function"
    }
  ],
  "bytecode": "0x6080604052600e805460ff191690553480156200001b57600080fd5b50604080518082018252601081526f576561706f6e4e4654466163746f727960801b60208083019182528351808501909452601784527f44796e616d6963576561706f6e4e4654466163746f72790000000000000000009084015281519192916200008991600091620002a7565b5080516200009f906001906020840190620002a7565b505050620000bc620000b66200025160201b60201c565b62000255565b60006008819055600f8054600181018255908252604080516020810191829052839052620000fe9260008051602062002ac383398151915290920191620002a7565b50600f805460018101825560009182526040805160608101909152603580825260008051602062002ac38339815191529092019291620029ef6020830139805162000151939250602090910190620002a7565b50600f805460018101825560009182526040805160608101909152603580825260008051602062002ac3833981519152909201929162002a5960208301398051620001a4939250602090910190620002a7565b50600f805460018101825560009182526040805160608101909152603580825260008051602062002ac3833981519152909201929162002a8e60208301398051620001f7939250602090910190620002a7565b50600f805460018101825560009182526040805160608101909152603580825260008051602062002ac3833981519152909201929162002a24602083013980516200024a939250602090910190620002a7565b506200038a565b3390565b600780546001600160a01b038381166001600160a01b0319831681179093556040519116919082907f8be0079c531659141344cd1fd0a4f28419497f9722a3daafe3b4186f6b6457e090600090a35050565b828054620002b5906200034d565b90600052602060002090601f016020900481019282620002d9576000855562000324565b82601f10620002f457805160ff191683800117855562000324565b8280016001018555821562000324579182015b828111156200032457825182559160200191906001019062000307565b506200033292915062000336565b5090565b5b8082111562000332576000815560010162000337565b600181811c908216806200036257607f821691505b602082108114156200038457634e487b7160e01b600052602260045260246000fd5b50919050565b612655806200039a6000396000f3fe6080604052600436106102065760003560e01c8063715018a611610117578063c87b56dd116100a5578063e985e9c51161006c578063e985e9c514610689578063ec0cfd0b14610244578063f119f567146106d2578063f2fde38b14610709578063fe42a2d91461072957005b8063c87b56dd146105e4578063c935949114610604578063cd5cfdaf14610633578063d082e38114610653578063d85d3d271461066957005b80639c75dd35116100e95780639c75dd3514610544578063a22cb46514610564578063b88d4fde14610584578063c2ba4744146105a4578063c78a048e146105c457005b8063715018a6146104c65780638623ec7b146104db5780638da5cb5b1461051157806395d89b411461052f57005b80633c8880061161019457806355f804b31161016657806355f804b31461040a5780636352211e1461042a5780636c8b703f1461044a5780637012f04e1461046a57806370a082311461049857005b80633c8880061461034657806342842e0e14610373578063451450ec14610393578063555e73c8146103b357005b8063092e94aa116101d8578063092e94aa146102ad578063095ea7b3146102cd57806313a7b7fa146102ed57806323b872dd14610305578063311a20f81461032557005b806301ffc9a71461020f578063061a992b1461024457806306fdde0314610253578063081812fc1461027557005b3661020d57005b005b34801561021b57600080fd5b5061022f61022a366004611eee565b610749565b60405190151581526020015b60405180910390f35b34801561025057600080fd5b50005b34801561025f57600080fd5b5061026861079d565b60405161023b9190611f5f565b34801561028157600080fd5b50610295610290366004611f72565b61082f565b6040516001600160a01b03909116815260200161023b565b3480156102b957600080fd5b5061020d6102c8366004612037565b6108c9565b3480156102d957600080fd5b5061020d6102e8366004612093565b610960565b3480156102f957600080fd5b50600e5460ff1661022f565b34801561031157600080fd5b5061020d6103203660046120bf565b610a76565b34801561033157600080fd5b5061020d610340366004612149565b50505050565b34801561035257600080fd5b50610366610361366004611f72565b610aa7565b60405161023b91906121b5565b34801561037f57600080fd5b5061020d61038e3660046120bf565b610cb0565b34801561039f57600080fd5b5061020d6103ae366004612217565b610ccb565b3480156103bf57600080fd5b506103ef6103ce366004611f72565b60106020526000908152604090208054600182015460029092015490919083565b6040805193845260208401929092529082015260600161023b565b34801561041657600080fd5b5061020d610425366004612239565b610d22565b34801561043657600080fd5b50610295610445366004611f72565b610d39565b34801561045657600080fd5b50610268610465366004611f72565b610db0565b34801561047657600080fd5b5061020d610485366004612283565b600e805460ff1916911515919091179055565b3480156104a457600080fd5b506104b86104b336600461229e565b610e4a565b60405190815260200161023b565b3480156104d257600080fd5b5061020d610ed1565b3480156104e757600080fd5b506102956104f6366004611f72565b600b602052600090815260409020546001600160a01b031681565b34801561051d57600080fd5b506007546001600160a01b0316610295565b34801561053b57600080fd5b50610268610f35565b34801561055057600080fd5b5061020d61055f366004611f72565b610f44565b34801561057057600080fd5b5061020d61057f3660046122bb565b611005565b34801561059057600080fd5b5061020d61059f3660046122f0565b6110ca565b3480156105b057600080fd5b5061022f6105bf36600461229e565b6110fc565b3480156105d057600080fd5b506104b86105df366004612370565b61117b565b3480156105f057600080fd5b506102686105ff366004611f72565b6111d9565b34801561061057600080fd5b5061062461061f366004612217565b6112de565b60405161023b939291906123aa565b34801561063f57600080fd5b5061026861064e366004611f72565b6113b3565b34801561065f57600080fd5b506104b860085481565b34801561067557600080fd5b5061020d610684366004612239565b6113de565b34801561069557600080fd5b5061022f6106a43660046123d4565b6001600160a01b03918216600090815260056020908152604080832093909416825291909152205460ff1690565b3480156106de57600080fd5b5061020d6106ed366004611f72565b600090815260106020526040902061012c600182018190559055565b34801561071557600080fd5b5061020d61072436600461229e565b611519565b34801561073557600080fd5b5061020d61074436600461240d565b6115e4565b60006001600160e01b031982166380ac58cd60e01b148061077a57506001600160e01b03198216635b5e139f60e01b145b8061079557506301ffc9a760e01b6001600160e01b03198316145b92915050565b565b6060600080546107ac90612454565b80601f01602080910402602001604051908101604052809291908181526020018280546107d890612454565b80156108255780601f106107fa57610100808354040283529160200191610825565b820191906000526020600020905b81548152906001019060200180831161080857829003601f168201915b5050505050905090565b6000818152600260205260408120546001600160a01b03166108ad5760405162461bcd60e51b815260206004820152602c60248201527f4552433732313a20617070726f76656420717565727920666f72206e6f6e657860448201526b34b9ba32b73a103a37b5b2b760a11b60648201526084015b60405180910390fd5b506000908152600460205260409020546001600160a01b031690565b6000828152600b6020526040902054339083906001600160a01b03168214806109145750816001600160a01b03166109096007546001600160a01b031690565b6001600160a01b0316145b6109565760405162461bcd60e51b815260206004820152601360248201527227b7363c9036b4b73a32b910131037bbb732b960691b60448201526064016108a4565b61034084846115ee565b600061096b82610d39565b9050806001600160a01b0316836001600160a01b031614156109d95760405162461bcd60e51b815260206004820152602160248201527f4552433732313a20617070726f76616c20746f2063757272656e74206f776e656044820152603960f91b60648201526084016108a4565b336001600160a01b03821614806109f557506109f581336106a4565b610a675760405162461bcd60e51b815260206004820152603860248201527f4552433732313a20617070726f76652063616c6c6572206973206e6f74206f7760448201527f6e6572206e6f7220617070726f76656420666f7220616c6c000000000000000060648201526084016108a4565b610a7183836116b0565b505050565b610a80338261171e565b610a9c5760405162461bcd60e51b81526004016108a49061248f565b610a71838383611815565b6000818152600a60209081526040808320805482518185028101850190935280835260609493849084015b82821015610bbc5783829060005260206000209060020201604051806060016040529081600082018054610b0590612454565b80601f0160208091040260200160405190810160405280929190818152602001828054610b3190612454565b8015610b7e5780601f10610b5357610100808354040283529160200191610b7e565b820191906000526020600020905b815481529060010190602001808311610b6157829003601f168201915b505050918352505060019182015460ff8082161515602080850191909152610100909204161515604090920191909152918352929092019101610ad2565b505050509050805160001415610bff576040805160008082526020820190925290610bf7565b6060815260200190600190039081610be25790505b509392505050565b805167ffffffffffffffff811115610c1957610c19611f8b565b604051908082528060200260200182016040528015610c4c57816020015b6060815260200190600190039081610c375790505b50915060005b8151811015610ca957818181518110610c6d57610c6d6124e0565b602002602001015160000151838281518110610c8b57610c8b6124e0565b60200260200101819052508080610ca19061250c565b915050610c52565b5050919050565b610a71838383604051806020016040528060008152506110ca565b8133610cd682610d39565b6001600160a01b031614610d185760405162461bcd60e51b8152602060048201526009602482015268139bdd081bdddb995960ba1b60448201526064016108a4565b610a7183836119b5565b8051610d35906009906020840190611e3f565b5050565b6000818152600260205260408120546001600160a01b0316806107955760405162461bcd60e51b815260206004820152602960248201527f4552433732313a206f776e657220717565727920666f72206e6f6e657869737460448201526832b73a103a37b5b2b760b91b60648201526084016108a4565b600c6020526000908152604090208054610dc990612454565b80601f0160208091040260200160405190810160405280929190818152602001828054610df590612454565b8015610e425780601f10610e1757610100808354040283529160200191610e42565b820191906000526020600020905b815481529060010190602001808311610e2557829003601f168201915b505050505081565b60006001600160a01b038216610eb55760405162461bcd60e51b815260206004820152602a60248201527f4552433732313a2062616c616e636520717565727920666f7220746865207a65604482015269726f206164647265737360b01b60648201526084016108a4565b506001600160a01b031660009081526003602052604090205490565b6007546001600160a01b03163314610f2b5760405162461bcd60e51b815260206004820181905260248201527f4f776e61626c653a2063616c6c6572206973206e6f7420746865206f776e657260448201526064016108a4565b61079b6000611b0e565b6060600180546107ac90612454565b600081815260106020526040902054600f8054610d3591849184908110610f6d57610f6d6124e0565b906000526020600020018054610f8290612454565b80601f0160208091040260200160405190810160405280929190818152602001828054610fae90612454565b8015610ffb5780601f10610fd057610100808354040283529160200191610ffb565b820191906000526020600020905b815481529060010190602001808311610fde57829003601f168201915b5050505050611b60565b6001600160a01b03821633141561105e5760405162461bcd60e51b815260206004820152601960248201527f4552433732313a20617070726f766520746f2063616c6c65720000000000000060448201526064016108a4565b3360008181526005602090815260408083206001600160a01b03871680855290835292819020805460ff191686151590811790915590519081529192917f17307eab39ab6107e8899845ad3d59bd9653f200f220920489ca2b5937696c31910160405180910390a35050565b6110d4338361171e565b6110f05760405162461bcd60e51b81526004016108a49061248f565b61034084848484611b7f565b6000306001600160a01b0316638da5cb5b6040518163ffffffff1660e01b8152600401602060405180830381865afa15801561113c573d6000803e3d6000fd5b505050506040513d601f19601f820116820180604052508101906111609190612527565b6001600160a01b0316826001600160a01b0316149050919050565b60085460009061118b8184611b60565b6000818152600b6020526040902080546001600160a01b0319166001600160a01b0386161790556111bc8482611bb2565b600880549060006111cc8361250c565b9091555090949350505050565b6000818152600260205260409020546060906001600160a01b03166112405760405162461bcd60e51b815260206004820152601f60248201527f55524920717565727920666f72206e6f6e6578697374656e7420746f6b656e0060448201526064016108a4565b6000828152600c60205260409020805461125990612454565b80601f016020809104026020016040519081016040528092919081815260200182805461128590612454565b80156112d25780601f106112a7576101008083540402835291602001916112d2565b820191906000526020600020905b8154815290600101906020018083116112b557829003601f168201915b50505050509050919050565b600a60205281600052604060002081815481106112fa57600080fd5b90600052602060002090600202016000915091505080600001805461131e90612454565b80601f016020809104026020016040519081016040528092919081815260200182805461134a90612454565b80156113975780601f1061136c57610100808354040283529160200191611397565b820191906000526020600020905b81548152906001019060200180831161137a57829003601f168201915b5050506001909301549192505060ff8082169161010090041683565b600f81815481106113c357600080fd5b906000526020600020016000915090508054610dc990612454565b6113e7336110fc565b6114215760405162461bcd60e51b815260206004820152600b60248201526a43616e74204d696e74202160a81b60448201526064016108a4565b60006114d333600f60018154811061143b5761143b6124e0565b90600052602060002001805461145090612454565b80601f016020809104026020016040519081016040528092919081815260200182805461147c90612454565b80156114c95780601f1061149e576101008083540402835291602001916114c9565b820191906000526020600020905b8154815290600101906020018083116114ac57829003601f168201915b505050505061117b565b604080516060810182526001808252600a602080840182815284860192835260009687526010909152939094209151825591519181019190915590516002909101555050565b6007546001600160a01b031633146115735760405162461bcd60e51b815260206004820181905260248201527f4f776e61626c653a2063616c6c6572206973206e6f7420746865206f776e657260448201526064016108a4565b6001600160a01b0381166115d85760405162461bcd60e51b815260206004820152602660248201527f4f776e61626c653a206e6577206f776e657220697320746865207a65726f206160448201526564647265737360d01b60648201526084016108a4565b6115e181611b0e565b50565b610a71818361117b565b60408051606081018252828152600160208083018290526000838501819052868152600a82529384208054928301815584529283902082518051939485946002909402909201926116429284920190611e3f565b5060208201516001909101805460409093015115156101000261ff00199215159290921661ffff19909316929092171790556000611682600e5460ff1690565b90508015610340576000848152600a60205260409020546103409085906116ab90600190612544565b6119b5565b600081815260046020526040902080546001600160a01b0319166001600160a01b03841690811790915581906116e582610d39565b6001600160a01b03167f8c5be1e5ebec7d5bd14f71427d1e84f3dd0314c0f7b2291e5b200ac8c7c3b92560405160405180910390a45050565b6000818152600260205260408120546001600160a01b03166117975760405162461bcd60e51b815260206004820152602c60248201527f4552433732313a206f70657261746f7220717565727920666f72206e6f6e657860448201526b34b9ba32b73a103a37b5b2b760a11b60648201526084016108a4565b60006117a283610d39565b9050806001600160a01b0316846001600160a01b031614806117dd5750836001600160a01b03166117d28461082f565b6001600160a01b0316145b8061180d57506001600160a01b0380821660009081526005602090815260408083209388168352929052205460ff165b949350505050565b826001600160a01b031661182882610d39565b6001600160a01b0316146118905760405162461bcd60e51b815260206004820152602960248201527f4552433732313a207472616e73666572206f6620746f6b656e2074686174206960448201526839903737ba1037bbb760b91b60648201526084016108a4565b6001600160a01b0382166118f25760405162461bcd60e51b8152602060048201526024808201527f4552433732313a207472616e7366657220746f20746865207a65726f206164646044820152637265737360e01b60648201526084016108a4565b6118fd6000826116b0565b6001600160a01b0383166000908152600360205260408120805460019290611926908490612544565b90915550506001600160a01b038216600090815260036020526040812080546001929061195490849061255b565b909155505060008181526002602052604080822080546001600160a01b0319166001600160a01b0386811691821790925591518493918716917fddf252ad1be2c89b69c2b068fc378daa952ba7f163c4a11628f55a4df523b3ef91a4505050565b6000828152600a60205260409020548110611a125760405162461bcd60e51b815260206004820152601960248201527f496e76616c6964206964206f7220757064617465496e6465780000000000000060448201526064016108a4565b6000828152600a60205260408120805483908110611a3257611a326124e0565b9060005260206000209060020201604051806060016040529081600082018054611a5b90612454565b80601f0160208091040260200160405190810160405280929190818152602001828054611a8790612454565b8015611ad45780601f10611aa957610100808354040283529160200191611ad4565b820191906000526020600020905b815481529060010190602001808311611ab757829003601f168201915b50505091835250506001919091015460ff808216151560208401526101009091041615156040909101528051909150610a71908490611b60565b600780546001600160a01b038381166001600160a01b0319831681179093556040519116919082907f8be0079c531659141344cd1fd0a4f28419497f9722a3daafe3b4186f6b6457e090600090a35050565b6000828152600c602090815260409091208251610a7192840190611e3f565b611b8a848484611815565b611b9684848484611bcc565b6103405760405162461bcd60e51b81526004016108a490612573565b610d35828260405180602001604052806000815250611cca565b60006001600160a01b0384163b15611cbf57604051630a85bd0160e11b81526001600160a01b0385169063150b7a0290611c109033908990889088906004016125c5565b6020604051808303816000875af1925050508015611c4b575060408051601f3d908101601f19168201909252611c4891810190612602565b60015b611ca5573d808015611c79576040519150601f19603f3d011682016040523d82523d6000602084013e611c7e565b606091505b508051611c9d5760405162461bcd60e51b81526004016108a490612573565b805181602001fd5b6001600160e01b031916630a85bd0160e11b14905061180d565b506001949350505050565b611cd48383611cfd565b611ce16000848484611bcc565b610a715760405162461bcd60e51b81526004016108a490612573565b6001600160a01b038216611d535760405162461bcd60e51b815260206004820181905260248201527f4552433732313a206d696e7420746f20746865207a65726f206164647265737360448201526064016108a4565b6000818152600260205260409020546001600160a01b031615611db85760405162461bcd60e51b815260206004820152601c60248201527f4552433732313a20746f6b656e20616c7265616479206d696e7465640000000060448201526064016108a4565b6001600160a01b0382166000908152600360205260408120805460019290611de190849061255b565b909155505060008181526002602052604080822080546001600160a01b0319166001600160a01b03861690811790915590518392907fddf252ad1be2c89b69c2b068fc378daa952ba7f163c4a11628f55a4df523b3ef908290a45050565b828054611e4b90612454565b90600052602060002090601f016020900481019282611e6d5760008555611eb3565b82601f10611e8657805160ff1916838001178555611eb3565b82800160010185558215611eb3579182015b82811115611eb3578251825591602001919060010190611e98565b50611ebf929150611ec3565b5090565b5b80821115611ebf5760008155600101611ec4565b6001600160e01b0319811681146115e157600080fd5b600060208284031215611f0057600080fd5b8135611f0b81611ed8565b9392505050565b6000815180845260005b81811015611f3857602081850181015186830182015201611f1c565b81811115611f4a576000602083870101525b50601f01601f19169290920160200192915050565b602081526000611f0b6020830184611f12565b600060208284031215611f8457600080fd5b5035919050565b634e487b7160e01b600052604160045260246000fd5b600067ffffffffffffffff80841115611fbc57611fbc611f8b565b604051601f8501601f19908116603f01168101908282118183101715611fe457611fe4611f8b565b81604052809350858152868686011115611ffd57600080fd5b858560208301376000602087830101525050509392505050565b600082601f83011261202857600080fd5b611f0b83833560208501611fa1565b6000806040838503121561204a57600080fd5b82359150602083013567ffffffffffffffff81111561206857600080fd5b61207485828601612017565b9150509250929050565b6001600160a01b03811681146115e157600080fd5b600080604083850312156120a657600080fd5b82356120b18161207e565b946020939093013593505050565b6000806000606084860312156120d457600080fd5b83356120df8161207e565b925060208401356120ef8161207e565b929592945050506040919091013590565b60008083601f84011261211257600080fd5b50813567ffffffffffffffff81111561212a57600080fd5b60208301915083602082850101111561214257600080fd5b9250929050565b6000806000806040858703121561215f57600080fd5b843567ffffffffffffffff8082111561217757600080fd5b61218388838901612100565b9096509450602087013591508082111561219c57600080fd5b506121a987828801612100565b95989497509550505050565b6000602080830181845280855180835260408601915060408160051b870101925083870160005b8281101561220a57603f198886030184526121f8858351611f12565b945092850192908501906001016121dc565b5092979650505050505050565b6000806040838503121561222a57600080fd5b50508035926020909101359150565b60006020828403121561224b57600080fd5b813567ffffffffffffffff81111561226257600080fd5b61180d84828501612017565b8035801515811461227e57600080fd5b919050565b60006020828403121561229557600080fd5b611f0b8261226e565b6000602082840312156122b057600080fd5b8135611f0b8161207e565b600080604083850312156122ce57600080fd5b82356122d98161207e565b91506122e76020840161226e565b90509250929050565b6000806000806080858703121561230657600080fd5b84356123118161207e565b935060208501356123218161207e565b925060408501359150606085013567ffffffffffffffff81111561234457600080fd5b8501601f8101871361235557600080fd5b61236487823560208401611fa1565b91505092959194509250565b6000806040838503121561238357600080fd5b823561238e8161207e565b9150602083013567ffffffffffffffff81111561206857600080fd5b6060815260006123bd6060830186611f12565b931515602083015250901515604090910152919050565b600080604083850312156123e757600080fd5b82356123f28161207e565b915060208301356124028161207e565b809150509250929050565b6000806040838503121561242057600080fd5b823567ffffffffffffffff81111561243757600080fd5b61244385828601612017565b92505060208301356124028161207e565b600181811c9082168061246857607f821691505b6020821081141561248957634e487b7160e01b600052602260045260246000fd5b50919050565b60208082526031908201527f4552433732313a207472616e736665722063616c6c6572206973206e6f74206f6040820152701ddb995c881b9bdc88185c1c1c9bdd9959607a1b606082015260800190565b634e487b7160e01b600052603260045260246000fd5b634e487b7160e01b600052601160045260246000fd5b6000600019821415612520576125206124f6565b5060010190565b60006020828403121561253957600080fd5b8151611f0b8161207e565b600082821015612556576125566124f6565b500390565b6000821982111561256e5761256e6124f6565b500190565b60208082526032908201527f4552433732313a207472616e7366657220746f206e6f6e20455243373231526560408201527131b2b4bb32b91034b6b83632b6b2b73a32b960711b606082015260800190565b6001600160a01b03858116825284166020820152604081018390526080606082018190526000906125f890830184611f12565b9695505050505050565b60006020828403121561261457600080fd5b8151611f0b81611ed856fea264697066735822122045c4c70e1dc349975641509c37834af184f51096c65d3514cafaba4d87085c3764736f6c634300080a0033697066733a2f2f516d626d46654c76796d6a4e5979755333784866427679414874443376724b70374e644c57734a70524d3931626d697066733a2f2f516d4e5159674c554571696d64536642644d527a6f6d397065644d45555376794c53684b313663387546334e6855697066733a2f2f516d586341464146397a76786e416a646a7861504b70556765394c425057686959735474445778476e6474784a43697066733a2f2f516d5739764334435a503358665a774863614463464a34616d575038484c48664858575151694c45616b665735418d1108e10bcb7c27dddfc02ed9d693a074039d026cf4ea4240b40f7d581ac802",
  "immutableReferences": {},
  "source": "pragma solidity 0.8.10;\r\n\r\nimport \"./lib/DynamicNFTFactory.sol\";\r\n\r\ncontract WeaponNFTFactory is DynamicNFTFactory {\r\n    string[] public meta;\r\n\r\n    struct Weapon {\r\n        uint level;\r\n        uint damage;\r\n        uint agility;\r\n    }\r\n\r\n    mapping(uint => Weapon) public weapons;\r\n\r\n    constructor() ERC721(\"WeaponNFTFactory\", \"DynamicWeaponNFTFactory\"){\r\n        meta.push(\"\");\r\n        meta.push(\"ipfs://QmbmFeLvymjNYyuS3xHfBvyAHtD3vrKp7NdLWsJpRM91bm\");\r\n        meta.push(\"ipfs://QmXcAFAF9zvxnAjdjxaPKpUge9LBPWhiYsTtDWxGndtxJC\");\r\n        meta.push(\"ipfs://QmW9vC4CZP3XfZwHcaDcFJ4amWP8HLHfHXWQQiLEakfW5A\");\r\n        meta.push(\"ipfs://QmNQYgLUEqimdSfBdMRzom9pedMEUSvyLShK16c8uF3NhU\");\r\n    }\r\n\r\n    function mint(string memory metadataUri) public override {\r\n        require(canMint(msg.sender), \"Cant Mint !\");\r\n\r\n        uint tokenId = super._safeDynamicMint(msg.sender, meta[1]);\r\n\r\n        weapons[tokenId] = Weapon(1, 10, 10);\r\n    }\r\n\r\n    function evolve(uint tokenId) public{\r\n        weapons[tokenId].level = 3;\r\n        weapons[tokenId].damage = 300;\r\n        weapons[tokenId].level = 300;\r\n    }\r\n\r\n    function refresh(uint tokenId) public{\r\n        uint level = weapons[tokenId].level;\r\n\r\n        setTokenURI(tokenId, meta[level]);\r\n    }\r\n}\r\n",
  "sourcePath": "C:\\Projects\\Crypto\\Projects\\dynamic-nfts\\contracts\\WeaponNFT.sol",
  "compiler": {
    "name": "solc",
    "version": "0.8.10+commit.fc410830.Emscripten.clang"
  },
  "schemaVersion": "3.4.3",
  "updatedAt": "2021-11-29T13:24:17.698Z",
  "devdoc": {
    "kind": "dev",
    "methods": {
      "approve(address,uint256)": {
        "details": "See {IERC721-approve}."
      },
      "balanceOf(address)": {
        "details": "See {IERC721-balanceOf}."
      },
      "getApproved(uint256)": {
        "details": "See {IERC721-getApproved}."
      },
      "isApprovedForAll(address,address)": {
        "details": "See {IERC721-isApprovedForAll}."
      },
      "name()": {
        "details": "See {IERC721Metadata-name}."
      },
      "owner()": {
        "details": "Returns the address of the current owner."
      },
      "ownerOf(uint256)": {
        "details": "See {IERC721-ownerOf}."
      },
      "renounceOwnership()": {
        "details": "Leaves the contract without owner. It will not be possible to call `onlyOwner` functions anymore. Can only be called by the current owner. NOTE: Renouncing ownership will leave the contract without an owner, thereby removing any functionality that is only available to the owner."
      },
      "safeTransferFrom(address,address,uint256)": {
        "details": "See {IERC721-safeTransferFrom}."
      },
      "safeTransferFrom(address,address,uint256,bytes)": {
        "details": "See {IERC721-safeTransferFrom}."
      },
      "setApprovalForAll(address,bool)": {
        "details": "See {IERC721-setApprovalForAll}."
      },
      "supportsInterface(bytes4)": {
        "details": "See {IERC165-supportsInterface}."
      },
      "symbol()": {
        "details": "See {IERC721Metadata-symbol}."
      },
      "tokenURI(uint256)": {
        "details": "See {IERC721Metadata-tokenURI}."
      },
      "transferFrom(address,address,uint256)": {
        "details": "See {IERC721-transferFrom}."
      },
      "transferOwnership(address)": {
        "details": "Transfers ownership of the contract to a new account (`newOwner`). Can only be called by the current owner."
      }
    },
    "version": 1
  },
  "userdoc": {
    "kind": "user",
    "methods": {
      "addUpgrade(uint256,string)": {
        "notice": "base function called only for metadata"
      },
      "getProperties()": {
        "notice": "where does the converstion between bytes & actual type happen ?"
      },
      "shouldAutoAccept()": {
        "notice": "Can be overridden to always return true/false"
      },
      "toggleAutoAccept(bool)": {
        "notice": "Can be overridden to be disabled"
      },
      "tokenURIs(uint256)": {
        "notice": "[id] -> tokenURI"
      },
      "upgrade(uint256,uint256)": {
        "notice": "hmm maybe add \"functions to execute\" inside the upgrade object / struct ?"
      },
      "upgrades(uint256,uint256)": {
        "notice": "[NFT] -> info"
      }
    },
    "version": 1
  }
}